:10000000E02D002095020000910200009302000004
:1000100000000000000000000000000000000000E0
:10002000000000000000000000000000910200003D
:1000300000000000000000009102000089020000A2
:100040009102000091020000910200009102000064
:100050009102000091020000910200009102000054
:100060009102000091020000910200009102000044
:100070009102000091020000910200009102000034
:100080009102000091020000910200009102000024
:10009000910200000000000000000000910200003A
:1000A0009102000091020000910200009102000004
:1000B00000000000074B1A00197DC907FCD520215C
:1000C000FF31198304494008D8611980137DDB078B
:1000D000FCD570470040004102A5FFFF70B58025A8
:1000E0000400ED02AC4200D370BD20000134FFF7E4
:1000F000E1FFFF34F6E7002330B59A4200D130BD6E
:100100009C000D5901330551F7E70000F0B580253B
:10011000104B114E5C68114FAC435C60002A00D15B
:10012000F0BD1400102A00D91024121B1E801D7D62
:10013000ED07FCD5A400A44600240D590551043454
:100140006445FAD1001909191F801C7DE407FCD50C
:10015000E4E7C0460040004144A5FFFF04A5FFFFBF
:10016000802270B5002304000D005200E958E058C9
:10017000814203D104339342F8D170BD2000FFF7D0
:1001800099FF402229002000FFF7C0FFF5E700009B
:10019000024A53785BB2002BFBDB7047000C004037
:1001A00010230249CA681A42FCD070470008004078
:1001B0001E21F8B50226274A274C5368274D8B434A
:1001C00033435360A660FFF7E3FF254B6360FFF7FF
:1001D000DFFFAE84FFF7E4FF224B1B689B0E3F2B33
:1001E00000D1203B002602271F4A9B0213431F4ACF
:1001F000EA62AB62AE84FFF7D3FF1D4BAB84FFF71F
:10020000CFFFAB8C3B43AB84FFF7CAFF3F22638831
:10021000934380221F4367806388D2011343638026
:10022000A660FFF7B5FF134B6360FFF7B1FFC02176
:10023000114A124B12485360036A09061B021B0A3B
:100240000B43036207239660136030220D4B1A6044
:10025000F8BDC04600400041000C004000080040CE
:100260000600010024608000FF01000080BB0A1C22
:10027000240500000007030010E000E0E703000091
:1002800000ED00E00000002010B500F0FBF810BD0C
:10029000FEE7FEE71E4A1F4B70B51F499A4232D156
:1002A00000211E4B1E4A934230D3FF221D4B0321D7
:1002B00093431D4A0C2593600222082430261B4BD1
:1002C0001B485A62C3788B431343C370C378AB4354
:1002D0002343C370174B987BB04306002020304364
:1002E0009873987BA84304439C73987B884302438C
:1002F0009A738023104A51680B43536000F090FEBC
:10030000FEE701CA01C38B42FBD3C9E702C3CAE7B8
:100310004C1D000000000020D0010020D001002072
:10032000DC0D00200000000000ED00E0FC7000414A
:10033000005000410048004100400041F7B5134D16
:1003400001906B88002B18D1082738001A0292B24E
:1003500014B2A44666465400A2B2002E02DA0C4A39
:100360005440A2B2013880B20028F1D158002A527C
:100370008022013352009342E7D1019A0B0A534085
:100380005B00E85A0902484080B2FEBDD00100205F
:1003900021100000074B1B685843074B1A78952320
:1003A000002A00D11233012243439A4200D37047FE
:1003B0000132FAE700000020D003002070B50500EC
:1003C0001C2400200F260B00E3403340002A09D1F3
:1003D000002B07D1002C0BD0002809D1043C231D91
:1003E000F1D170BD092B03DD37332B540130F5E714
:1003F0003033FAE7054B064A1A60BFF34F8F054BBF
:10040000054ADA60BFF34F8FFEE7C046FC7F00204D
:10041000EF6926F000ED00E00400FA0510B50B4A84
:100420001368002B0ED10A4911600A490A6801328B
:100430000A6009490868002806D0824204D30B608C
:10044000FFF7D8FF013B136010BDC046DC0300205E
:10045000DC050000080A00200C0A0020054B064AB3
:100460001A60BFF34F8F054B054ADA60BFF34F8F19
:10047000FEE7C046FC7F0020EF6916F000ED00E0CB
:100480000400FA05012210B5194B1A491A701A4ACC
:100490001368013313600A68002A0CD0174810183B
:1004A000834203D180241648A4028461934201D17F
:1004B00000230B6010BD1348DBB20278002B10D173
:1004C00080210F4B8902996111000A39C9B20E4B84
:1004D000F02902D91978494219701B78D218027094
:1004E000E8E79342E6D18022054B92025A61E1E7A8
:1004F000D0030020D8030020D403002018FCFFFF05
:10050000004400410500002004000020074B084A79
:100510001B681168994207D2FA21C9005B18136061
:100520008022044B92025A617047C046D4030020D7
:10053000D8030020004400418022024B92029A60BE
:100540009A6170470044004170470000202370B555
:10055000354A0F20D1690B43D361012233490B780F
:1005600013430B70324B19788143197006211C78A4
:10057000214319702F490C7822430A701A780240DF
:100580001A70602219780A431A702B4B2B4A5A8032
:100590005A78D209FCD12A4B013219780A431A70D1
:1005A0009A78D207FCD41F2026490A68520B0240D1
:1005B000824200D105221C8D234D024092012C4025
:1005C00022431A850A68920C02401F2A00D1023A7F
:1005D0001F24188D2240A043024307201A850A6871
:1005E000D20D0240824200D10322198D02401748E9
:1005F000120301400A437F211A851A7814480A40E1
:100600001A70042219780A430C211A7058621A8948
:100610008A431A811A890B398A431A818022002160
:10062000520001F090FA70BD0004004058440041AF
:100630003C44004159440041000C00400640000089
:1006400000500041246080003FF8FFFFFF8FFFFF54
:10065000540A0020F7B51C00314B06005B6A0F00FE
:1006600015000193002C05D1443454432D4BE4185C
:10067000FFF7D4FE63782278934210D2D51ABD4298
:1006800000D93D00002E08D0211DC9182A003000D5
:1006900001F050FA63785B1963702800FEBD019B7E
:1006A000A1786A01D318002911D1211D1960596858
:1006B0001D48890B890359605968014059601B49DD
:1006C000551840212879014329710121A17014494D
:1006D00000255118019116495218127AD207DCD51B
:1006E0005D68A278EDB22570022A04D12A0019684B
:1006F000201D01F01FFABD4200D93D00002E0CD094
:100700002A0030006570211D01F014FA0122019BBE
:10071000FF331A720023A370BFE76670F6E7C04686
:1007200000500041540B0020FF3F00F000510041F9
:10073000FF50004110B50023FFF78CFF10BDF8B546
:1007400005000C0016001F00002C00D1F8BD210090
:1007500028003B003200FFF77DFF241A2D18F3E735
:10076000F8B50D001F4956014C6A3419002B1BD0F7
:1007700063695B005B08636120616369AA049B0B8A
:10078000920C9B03134363616369174A1748134034
:100790006361321802238021160013729171327A3C
:1007A0001A42FCD02800F8BD012163695B005B0F91
:1007B00003339940A94209D8131F5A1E9341626915
:1007C000DB07520052081A436261D5E744275743BA
:1007D000074A0437BF1801002A00380001F0AAF9BF
:1007E0003800C9E700500041FF3F00F0FF500041D2
:1007F000540B002010B50023FFF7B2FF10BD00001E
:1008000010B5054A0B001188994200D91900002241
:10081000FFF7F0FF10BDC0460204002007B500221C
:100820006B461100D81DFFF7E5FF07BDF0B5C04CC2
:100830009DB0FFF7F3FDA38B08211A000A40BD4EBF
:1008400005920B422DD080231122C020A183383184
:10085000A3727270B1717371B74BB84C5A6880054E
:10086000224002435A605A6922401043B44A5861F8
:100870001A60B44AB4481A615A6810408022920241
:1008800002435A605A68920B92035A600022AF4B9F
:1008900071711A70AD4B1878431E9841C0B21DB0EB
:1008A000F0BD1022337A94461342F3D03272A84A34
:1008B000A74D9279A64B0292A54A0298D7799B88B8
:1008C0003A020243019210B2A14A0490A048527A1F
:1008D000007A1202024310B203909D48AD7AC07AAA
:1008E000000228439B4D288040259B487571834218
:1008F00000D1B4E136DC81204000834200D1C7E161
:1009000015DC822B00D193E106DC803B012B00D863
:1009100089E12023B371BDE7802252009342F8D0D1
:100920000222FF329342F4D1FFF778FFB2E7B02101
:1009300089008B4200D170E10EDCE022520093422C
:10094000E7D0A23B854AFF3B1342E2D100230821B6
:100950000A930B930AA8C8E0C02292009342D8D011
:100960007F4ADFE77F4A9342DED000DD99E07E4A8E
:10097000934214DC013A934200DBAFE07B4A93429E
:10098000E4D06032FF329342C3D1FFF747FF8023A8
:10099000049A5B421343664ADBB293727AE7882279
:1009A0006A481201934200D196E080329342B0D15E
:1009B000049B30270370FFF731FFA02303225B0065
:1009C000E254C0225C4B5D49586C920508401043CC
:1009D00058644620FF3025546548802618649020CE
:1009E00040002754586B0840104358639220400041
:1009F000265460481863B02040002554586F0840C2
:100A00005867B220400026543C307D3E2654FC38C6
:100A100084469C44604606680E4016430660A6263F
:100A2000FF36A5551E005448A0363060C02676001B
:100A3000A7551F0094373E6880200E4016433E6045
:100A4000C2267600A0551E004C4F90363760E02637
:100A500044277600A7550436A555A055C0198446ED
:100A60009C44604606680E4016430660D4208446C7
:100A70009C44604606680E4016430660F0268020BF
:100A80007600A7550436A555A0551C00E43420680F
:100A9000F433084010432060186801400A431A608C
:100AA000F8E6374A934200D129E10ADC354A9342FD
:100AB00000D139E7344A354913408B4200D133E73E
:100AC00027E7334A934200D12EE7324A934200D0BF
:100AD0001FE700230AA80380012106E08023019A72
:100AE0005B009A4204D112212B48FFF789FED1E620
:100AF0008023019A9B009A4202D199212748F4E76A
:100B0000032F7AD1029B032B00D902E70AAC4822BB
:100B10000021200001F017F8029B6770002B41D1E3
:100B2000043323701E4B638020002178DDE7C0462C
:100B300000500041FF500041540A0020FFFFFF8F8A
:100B4000140A0020580B0020FF3F00F0E0030020B3
:100B5000100A00200204002002030000FFFE000033
:100B6000010300002109000081060000A10300002C
:100B7000E00B00209C0B0020AC0C0020680C002037
:100B8000A121000021200000FFFEFFFF210A00003C
:100B900021220000A1FE0000941B00004400002060
:100BA0000904000006AE3200564B23CB23C20025B9
:100BB0002F001B681360AB00534AF358D019196813
:100BC0000122FFF7FBFB01353F18042DF3D1002371
:100BD0004D4AD3554D4B4E4A9B799B009D5828005A
:100BE00000F0B9FF23000130400020702A78023362
:100BF0000135002A98D01A70F8E70F2F02D1392159
:100C0000444872E7212F02D1092143486DE7222F82
:100C100000D07EE62121414867E7072A00D078E628
:100C2000AA213F4861E7059B0AA8022103805CE7EF
:100C30000A4200D06DE60F2150230A400399083282
:100C40005201194206D0374BD21893799B06DB0F1D
:100C50000AA8EAE7334BD2189379DB06F7E70F20AF
:100C600013000340024200D153E61140019A0A43A7
:100C700000D04EE6039A08335B01120604D5294AD8
:100C80009B1820225A714FE6264A9B186246F9E7C4
:100C90000F2013000340024200D13AE60A400199B6
:100CA000114300D035E6039A5B01120613D51E49A5
:100CB0001C4A9A185B182021D879084200D133E6E3
:100CC00059711B7A2B4200D12EE613004022FF33CC
:100CD0001A723E3AD6E760461349124A9A185B18D0
:100CE000D979014200D11FE6202158711B7A0B42AD
:100CF00000D119E61300FF3301221972C2E70B4835
:100D0000F3E6C046841B0000E1030020100A002027
:100D1000CC1B000008000020E0000020A81B000001
:100D2000F400002000500041FF500041EC00002082
:100D300010B5FFF70BFC0022034B1A700223034A85
:100D400011780B43137010BDE003002000500041E8
:100D500010B50C000122FFF74DFD200010BD10B5AD
:100D60000C000122FFF746FD200010BD70B5040005
:100D70000D00FFF75BFD03000020834204D0022238
:100D800029002000FFF7D6FC70BD70B505000C00EF
:100D9000FFF74CFD002807D0002302222100280085
:100DA000FFF7CDFC200070BD0400FBE730B5002349
:100DB0002025934200DB30BD0C78002C03D001319C
:100DC000C4540133F5E72C00FAE70000F8B580229F
:100DD0000C00050000212000920000F0B4FE002D60
:100DE0000CD13E2220004B4900F0A4FEFF235522E7
:100DF0005B00E254484B9218E254F8BD7E2D25D892
:100E00006B1E3E2B00D93F3B002B12D080251B02CE
:100E1000581C424EFF30ED001A1F591CAA4203D243
:100E2000B34211D08BB223800B0002348142F3D144
:100E3000E3E7F0222100FF2022700A31621C914278
:100E4000E4D010700132FAE7354BECE7822D31D84F
:100E50007F2DD2D12F490B2220002B31FFF7A6FF87
:100E6000802728232F4EE3727D3D3F03F0683B002F
:100E70002034002802D000F06EFE03001A0A237707
:100E800062771A0C1B0EE3772B0A3100A277A57646
:100E90000B22E3762000FFF789FF67224D230135FF
:100EA0005242ADB222746374227663761036052DF9
:100EB000DCD1A2E72B00833B012B0CD8194A1B0184
:100EC000D318DD68280000F046FE2900020020004B
:100ED00000F030FE91E78023853D2902DB02994234
:100EE00000D38AE7104B114A2360114B2000636046
:100EF000FE235B00E2508023DB00A361802380227D
:100F00009B01A3600B4B52006561E1602261E361CC
:100F10002030DDE7DC1B0000FF01000003040000BF
:100F2000FFFF0000801C00005546320A306FB10AF6
:100F300057515D9E882BED6870B516001D000A683C
:100F40002F4B0C009A4252D12E4B4A689A424ED1F6
:100F5000FE2252002C4B8A589A4248D18B689A0440
:100F600003D52A4AC969914241D1DB0712D48023B3
:100F700022695B009A420DD1E068C3B2002B09D10F
:100F8000F822234B9202C318934203D2210020314E
:100F9000FFF7E6F8002D2BD0A369002B28D0296895
:100FA0001C4A8B4206D0934201D8002901D001236C
:100FB0005B422B606369934219D8072201211A40D2
:100FC0009140DB08EB181A7AC8B2114204D1696863
:100FD000024301311A7269606A682B689A4206D32B
:100FE000002E04D10C4B1B681E330C4A136070BDDD
:100FF000002EFCD1084B1B682D33FF33F5E7C046AC
:101000005546320A57515D9E306FB10A882BED6804
:1010100000E0FFFF63040000080A00200C0A002023
:10102000F8B5504DAB68002B00D0FEE74E490A687A
:10103000531C21D120224D4BFF32188B02431A83BF
:1010400058684B4A02435A604A4ADA614A4A1A804F
:101050001A7DD207FCD5494A1A801A7DD207FCD5E1
:10106000474A0A60474A48491160484A1A801A7D2F
:10107000D207FCD5FFF7F2F90022454B1A70DA7956
:10108000D209FCD1FFF758FA424B1E68424BF218C6
:10109000F8239B029A4213D8404B414A1968414CAD
:1010A000414B914232D11978404AC90702D4216894
:1010B00091422BD03E4B22601B683E4A3233136074
:1010C000FFF776F8BFF35F8F62B6FFF731FE40207F
:1010D000FFF73AFA80270A230126374DFF012B70CC
:1010E000FFF7A4FB354C00280AD02378DAB2002B96
:1010F00005D1304B38001A60FFF726FA2E702670A3
:101100002378002B25D000F0D7FAFCE71B78DB070B
:10111000DA0F002B0DD0002380222360284B92028F
:101120005A6180239B011A6882F30888AB603047BC
:10113000C6E72168234B994201D12260C0E72168AC
:101140001A4A9142E7D0FA2023604000FFF722F9C3
:10115000E1E72378002BC3D1FF33C046013B002BCE
:10116000FBD1BDE700ED00E0004080000040004101
:10117000800004000020400005A5FFFF44A5FFFFFC
:10118000FAC7E0D8044080005DFCFFFF06A5FFFF22
:10119000001000400420000000E0FFFFB420000029
:1011A0007CB0EE87FC7F002038040040EF6926F019
:1011B000080A00200C0A002004000020040400207B
:1011C00000440041EF6916F010B5054C12220021D1
:1011D000200000F0B8FCF0232370E63BE37110BD63
:1011E00043060020F7B58027040016000025019172
:1011F000BF00A368AB4200D8F7BD3900A278019BBD
:10120000E068FFF79CFA80235B01E81801223300B5
:10121000E168FFF791FE0135EBE770B513000600BA
:101220000C00150000200A000121FFF713FA00232B
:10123000984206D02B0022001F213000FFF70AFA47
:101240000123180070BD000010B504220D210248D2
:10125000FFF7D0FA10BDC0469E01002010B50B4824
:101260000B494279037912021A4383791B041A430A
:10127000C3791B0613431A0A0B714A711A0C1B0E11
:101280008A71CB71FFF7E0FF10BDC0462406002035
:101290009E01002070B504220D00FFF7ABFA164C3A
:1012A00085420FD0FFF790FF012304222373134BD5
:1012B0009A700022DA701A715A719A711A735A73FD
:1012C000FFF7CCFFFFF780FF00232373637A217AB7
:1012D0001B020B43A17A09041943E37A1B06194345
:1012E000491B0B0A217263720B0C090EA372E17287
:1012F000FFF7B4FF70BDC0469E01002043060020EA
:1013000070B5184C142205000021200000F01BFCD1
:10131000154A002D1FD021000823D07D08313F261B
:10132000527C32401C2A01D0B24205D10F4A0C3304
:101330000A800522DBB2CA70191C834200D9011C45
:10134000C9B2002D0BD0023B9BB21B0223802000B0
:10135000FFF7A0FF70BD0423D07C211DDFE7013B18
:101360002370F4E708060020240600201C0A000071
:10137000F0B5040000252B4B85B0597C03AAD17031
:10138000997C9170D97C5170197D1170997D02AA58
:10139000D170DB7D937053880193019BAB4208D8D9
:1013A000FFF712FF0022204B1A73FFF757FF05B01B
:1013B000F0BDFFF73BFA0028F9D0039B1B4FEE1856
:1013C000002C1FD039003000FFF700FD80210422DF
:1013D00038008900FFF70EFA134A0135517A137A63
:1013E00009021943937A1B041943D37A1B060B4352
:1013F0000F495B18190A13725172190C1B0E917266
:10140000D372CAE780212300380005228900FFF744
:1014100096F9220039003000064BFFF78DFDFFF7EB
:1014200075F8D9E7240600209E010020080400205A
:1014300000FEFFFF580600207FB500F041FB454E3F
:10144000002205213000FFF7E8FE002849D0737A1A
:10145000357A1B022B43B57A3F4C2D042B43F57A8A
:101460002D061D432B0A63722B0CA3722B0E2572C3
:10147000E372F07B2F2827D8192815D8032827D006
:1014800012282FD0002840D0FFF79EFE012305220E
:101490002373324B9A700022DA701A715A719A7162
:1014A0001A7320325A7334E01A381528ECD800F039
:1014B0002DFB282CEBEB2CEBEBEBEB41EB33EBEBCD
:1014C0003BEB3FEBEBEBEB2C5A28DDD1012019E095
:1014D000F37C191C122B00D912212048C9B2FFF746
:1014E000D9FE7FBD1E4C1F49200018220830FFF78F
:1014F0005DFCF37C191C242B00D924212000C9B2E7
:10150000EDE70020FFF7FCFEEBE7FFF75DFE0023B1
:101510002373FFF7A3FEE4E7802313489B02436095
:10152000124B08210360DAE70120FFF721FFD8E71B
:101530000020FAE70C260E49320001A800F0FAFA62
:10154000B54204D9002326726372A372E3720C21A0
:1015500001A8C4E7240600209E01002043060020C5
:10156000AC010020781B00001C06002000003E7F1C
:10157000041D000072B6BFF35F8F044B044A9A82C9
:101580009A830022034B9A607047C0460050004186
:10159000FF03000000ED00E0F0B5C7B00FAF04009E
:1015A000FFF7E8FF44220021380000F0CCFA98222F
:1015B000002120A800F0C7FA02230F21BB70A378F6
:1015C00062780B40A37063680A4008930023294E99
:1015D00007ADE16828486270099301222B7320ABA4
:1015E0000796FFF7A9FC3900200020AAFFF7FAFDB3
:1015F00001230D2128006278FFF7B2F8019600253B
:101600003A00A17807A8FFF708FE002827D0019B21
:1016100003AE0393089B23227360099B0093B3607E
:101620000023337302AB9B181B78002B10D02A2B9E
:101630001CD102AB5D8D39006DBA5D80ADB2A56085
:10164000200020AAFFF7CEFDB3686D025D1BB560D8
:1016500001230D2130006278FFF782F8CFE7074BB6
:101660009D4201D9FEF7C6FE0135C9E7FEF7F6FE39
:10167000EEE7C04653425355FF0F0000F824010027
:1016800030B5EFF30883054C2360036883F30888C3
:101690004568A847236883F3088830BDD00D002033
:1016A00007B5010001226846FEF788FE082168465A
:1016B000FFF74EFB07BD0000F7B57A230022804CF0
:1016C000804922600B7000920193FFF7B5FE7E4DBA
:1016D00040212800FFF74AFB7C4B1860009B2B54ED
:1016E000002801D0FEF712FF794B009A1D60794B5C
:1016F0001A607848754B02681F68BA42E5D2744E8A
:1017000031680B78FF2B36D0734D232B00D0B3E01C
:101710006C4B1B78532B33D12B68013201310260A3
:101720003160BA1A9A4200D91A006C4D20682A60BA
:1017300000F000FA674829680368654ACB18013B46
:10174000036010684B1EC3181360634B644D1B6825
:101750002970C9B28B4203D92068591AFFF715FBCB
:10176000C046584B019A1A705B4B009A1A60584A4F
:10177000136801331360574A136801331360B8E7E5
:10178000522B04D129682068FFF7E9FAE9E74F2BCB
:1017900003D12B6822681370E3E7482B03D12B6831
:1017A00022681380DDE7572B0AD14E4B22689A42FC
:1017B00002D14D48FEF7C8FE23682A681A60D0E7B8
:1017C0006F2B04D101212068FFF7C2FAC9E7682B0B
:1017D00005D1022123681B882B602800F4E7772BB2
:1017E00004D1236804211B682B60F6E7472B09D13D
:1017F0002868FFF745FF3D4B1B78002BB1D0012136
:101800003B48E1E7542BACD04E2BAAD0562B02D14B
:101810002A213848D8E7582B05D12868FEF75EFC06
:1018200003213548D0E7592B0DD12A682068334B66
:10183000002A03D1186003213148C5E719689208CE
:10184000FEF764FCF7E75A2B8BD12F68002526683A
:10185000F719B74209D101212A48FFF779FA280080
:10186000FFF71EFF03212848AEE729003078FEF776
:1018700065FD01360500ECE71A00303AD1B20929BE
:1018800004D82B681B0113432B6070E71A00413A00
:10189000052A03D82A68373B1201F4E71A00613A97
:1018A000052A03D82A68573B1201ECE72C2B03D1F9
:1018B0002B682360009BE7E7024A1370FAE7C046F3
:1018C000CC0D0020800D0020880D0020780D002018
:1018D0007C0D0020840D0020D40D0020D80D0020A8
:1018E000740D00200CED00E040004000F0060020E8
:1018F000101D0000201D0000121D0000F406002035
:10190000161D00001A1D00001C1D00000300F7B585
:10191000473304001A78402103000020FEF79AFEA6
:10192000002801D10020FEBD0023237023790193FC
:101930000423E356002BF5DB3F262000019FA51D65
:10194000EB8F37404830C0183A00611D00F0F2F8C4
:10195000E88F019BC01980B2B34301D1E887E1E76A
:101960000023EB87DFE7F0B506000C001F0093B003
:1019700001923F25AC4203DC2500002F00D1403707
:101980003B0002AA2B43137002AB31002A00581C03
:1019900000F0D0F86B4640211A7902A80123FEF727
:1019A000DFFE7619641BE4D113B0F0BD030010B55F
:1019B00047331A78043100234830FFF7D4FF10BDB5
:1019C000F7B50400FFF7A2FF002842D023004833F8
:1019D0009A88A06C1A80002201385A80082867D89B
:1019E00000F09EF815052327252A483F3800324E7F
:1019F000300000F0B0F80500200031002A004C3023
:101A000000F098F829002000FFF7D0FF21E0012323
:101A1000E364FF3323658023DB006365A0235B0061
:101A2000A365264B1421E365EDE7FEF7E3FC0021F7
:101A3000E9E7FEF713FDFAE720000021FFF7B6FF04
:101A40008023206D9B01984203D321005431FEF77F
:101A500087FBF7BD2100626D206D5831FEF74BFB0F
:101A6000E5E72000656D216D2A004C30FEF743FB51
:101A7000A900C8E70026636D0193236D5D1CFF3547
:101A8000019BB34201DC5900BDE700216F1EFF3FFF
:101A90003B001878FEF752FC01370100AF42F7D146
:101AA000230072004C33013598520136FF35E7E7C9
:101AB00001225A80BBE7C046B01C0000882BED68AD
:101AC00007480622030010B547331A70FFF778FF66
:101AD00004480722030047331A70FFF771FF10BD57
:101AE000F80600208008002010B5E2B00400FFF7DF
:101AF00041FDC42200216846520000F024F847232B
:101B00006B441C706846FFF75BFFFBE702B471464D
:101B100049084900095649008E4402BC7047C04636
:101B200002B4714649084900095C49008E4402BC70
:101B30007047C046002310B59A4200D110BDCC5C5E
:101B4000C4540133F8E703008218934200D1704770
:101B500019700133F9E70023C25C0133002AFBD17D
:101B6000581E7047416461667275697420496E64DD
:101B70007573747269657300466561746865722077
:101B80004D3000000CA0800040A0800044A08000E8
:101B900048A0800012011002EF0201409A231500B4
:101BA00001420102030100000697FF0901A101158E
:101BB0000026FF0075089540090181029540090142
:101BC000910295010901B102C0000000000000006F
:101BD000641B0000781B0000E1030020EB3C9055E3
:101BE0004632205546322000020101000240007EAC
:101BF0003EF83F000100010000000000000000006E
:101C00008000294200420046454154484552424F17
:101C10004F5446415431362020203C21646F637478
:101C20007970652068746D6C3E0A3C68746D6C3E1A
:101C30003C626F64793E3C7363726970743E0A6CF7
:101C40006F636174696F6E2E7265706C6163652875
:101C500022687474703A2F2F6164616672752E6900
:101C6000742F22293B0A3C2F7363726970743E3CC7
:101C70002F626F64793E3C2F68746D6C3E0A0000E1
:101C8000494E464F5F55463254585400B01C000030
:101C9000494E44455820202048544D001A1C00004D
:101CA00043555252454E5420554632000000000024
:101CB00055463220426F6F746C6F61646572207696
:101CC000332E31302E302053464857524F0D0A4D97
:101CD0006F64656C3A2046656174686572204D30AA
:101CE0000D0A426F6172642D49443A2053414D44BC
:101CF0003231473138412D466561746865722D7601
:101D0000300D0A000000000800003E8002000200C2
:101D10000600580A0D00590A0D005A00230A0D004A
:101D200076312E31205B41726475696E6F3A585975
:101D30005A5D204D617920313720323032302031E8
:101D4000373A35363A32310A0D0000000100000002
:101D500001C80000050F3900021810050038B60848
:101D600034A909A0478BFDA0768815B6650001014E
:101D7000001C100500DF60DDD88945C74C9CD2658A
:101D80009D9E648A9F00000306AA000200000000D6
:101D90000902990005010080FA080B000202020105
:101DA00000090400000102020100052400100104E2
:101DB000240206052406000105240103010705830A
:101DC000030800FF09040100020A00000007058162
:101DD0000240000007050202400000090402000260
:101DE0000806500007058402400000070505024070
:101DF00000000904030002030000000921000100A3
:101E00000122210007058603400001070506034063
:101E100000010904040002FF2A01000705870340AE
:101E2000000107050703400001000000090403004A
:101E3000020300000300000000C2010000000800CF
:101E40000A00000000000306AA00080002000400C7
:101E5000A0001400030057494E55534200000000F3
:101E60000000000000008400040007002A00440075
:101E70006500760069006300650049006E0074002B
:101E80006500720066006100630065004700550050
:101E9000490044007300000050007B00390032000C
:101EA0004300450036003400360032002D00390072
:101EB0004300370037002D0034003600460045004F
:101EC0002D0039003300330042002D003300310073
:101ED0004300420039004300350042004200330015
:101EE000420039007D0000000000534253550000BD
:101EF000000000000000000000800202200000003E
:101F000000000000000000000000000000000000D1
:101F10000000000000000000312E30300000000002
:101F200000000000000000000000000000000000B1
:101F300000000000000000000000000000000000A1
:101F40000000000000000000000000000000000091
:101F50000000000000000000000000000000000081
:101F60000000000000000000000000000000000071
:101F70000000000000000000000000000000000061
:101F80000000000000000000000000000000000051
:101F90000000000000000000000000000000000041
:101FA0000000000000000000000000000000000031
:101FB0000000000000000000000000000000000021
:101FC0000000000000000000000000000000000011
:101FD0000000000000000000000000000000000001
:101FE00000000000000000000000000000000000F1
:101FF00000000000E91A000099150000B01C000064
:1020000000800020395B0000015B0000215B0000C4
:1020100000000000000000000000000000000000C0
:10202000000000000000000000000000215B000034
:102030000000000000000000215B00008D5B00003C
:10204000215B0000215B0000215B0000215B0000A0
:10205000C55A0000215B000001310000255B000033
:10206000215B0000A1580000215B0000215B000003
:10207000A1510000215B0000B1580000215B00006D
:10208000215B0000215B0000F5230000215B0000C4
:1020900000000000215B0000215B0000215B0000CC
:1020A000215B0000215B0000215B0000215B000040
:1020B0000000000010B5064C2378002B07D1054B1B
:1020C000002B02D0044800E000BF0123237010BDA4
:1020D00020030020000000005CF30000044B10B55A
:1020E000002B03D00349044800E000BF10BDC046E8
:1020F00000000000240300205CF300000122014BDB
:102100001A707047790500200122014B1A70704740
:10211000B80400200022034B1A70034B01321A70DE
:102120007047C046600300203C03002010B5040047
:10213000983002F071FD2000883002F06DFD200023
:10214000783002F069FD2000683002F065FD200063
:10215000583002F061FD2000483002F05DFD2000A3
:10216000383002F059FD2000283002F055FD2000E3
:10217000183002F051FD2000083002F04DFD200023
:1021800010BD000010B501F0EFFA0100034801F0A6
:1021900015FB0122024B1A7010BDC046F904002045
:1021A000F404002010B5411D02701C06120A013013
:1021B00022431B0A8842F7D110BD0022002370B5CC
:1021C00006000D0000240A604B60305DE200002133
:1021D00006F0AAFA2A686B68801859410134286011
:1021E0006960052CF1D170BDF0B58FB0060001918A
:1021F00015001F00032401F083FF01F075FE012F7D
:1022000006D0062F04D1149805F018FE44000334BC
:1022100002A802F0DDFC184A210006A802F02CFDFD
:1022200006A90AA801F0CCFD0AA902A802F07BFDCC
:102230000AA802F0F1FC0AA802F0CAFC0AA801F000
:10224000D3FA02A802F028FD02000B007019FFF774
:10225000A9FF6B463000998801F080FE01F080FDF7
:102260000AA802F0D9FC06A802F0D6FC02A802F0E7
:10227000D3FC0FB0F0BDC04600007A44030002005A
:10228000F0B53833A3B019000400083206001EA8C8
:10229000019302F07DFD1EA802F038FD68360100B2
:1022A000300002F040FD25001EA802F0B5FC210020
:1022B00028352A0058311EA802F06AFD27001EA802
:1022C00002F024FD78370100380002F02CFD1EA832
:1022D00002F0A2FC230022008833183229001EA835
:1022E000009302F055FD1EA802F010FD01000098B9
:1022F00002F019FD1EA802F08FFC2100019A48315E
:102300001EA802F045FD1EA802F000FD7035010078
:10231000280002F008FD1EA802F07EFC02A802F0D0
:1023200057FC3A00310006A802F04EFD2A00009941
:102330000AA802F049FD0AAA06A90EA802F028FD83
:102340003A00310012A802F0FFFC009A12A916A868
:1023500002F0FAFC2A0016A91AA802F0F5FC1AAA43
:102360000EA91EA802F046FD1EA902A802F0DBFC81
:102370001EA802F051FC1AA802F04EFC16A802F0AA
:102380004BFC12A802F048FC0EA802F045FC0AA87B
:1023900002F042FC06A802F03FFC02A802F092FC08
:1023A000051C2068616806F02FFB291C06F0F4FE6E
:1023B000054906F019FD06F089FA040002A802F0AA
:1023C0002BFC200023B0F0BD00007A4470B500253E
:1023D0000400074B1D7001F019FE01F085FD280077
:1023E00001F0D8FB200001F0F7FB01F09FFC70BD6D
:1023F000F4040020F0B587B002A802F0E9FB274DF5
:102400002B78002B02D16B78002B07D002A801F0AB
:10241000EBF902A802F040FC0C0001900023204AD6
:10242000E95C002917D0DF00D119086849688C429F
:1024300003D819D1019E864216D90020D900E8544C
:10244000511801267642F7170E604F601549C8549F
:1024500015490130C854012B04D102A802F0DCFB5D
:1024600007B0F0BD0123DBE70E49C95C0029F2D0BB
:10247000D7193868796802267642F71780197941AA
:10248000282747408C4203D8E5D10199B942E2D9C7
:1024900000200349DF00E854C919D2E730060020C4
:1024A00038060020320600204806002010B50B4CEC
:1024B000200001F099F9200002F0EEFB084B1860B3
:1024C000596006F0C5FA074B1A685B6808F040F9D6
:1024D0000022054B08F03CF910BDC0464003002027
:1024E000580300200800002080842E4110B5044CC1
:1024F000200001F079F9200002F0CEFB10BDC046AB
:1025000040030020F0B5D64C8FB0200003F0C0F996
:10251000D44ED54D3378002B02D0002333702B706E
:102520002878C0B2132857D805F070FF140058005F
:10253000FD0056015600A2001A0256005600560031
:1025400056005600560056005600560056005600DB
:102550005600DA01FF2200211204200003F03AF9AC
:102560000A21200003F06EF9200003F001F833780F
:10257000002B01D000233370BC4C2378002B21D0DA
:10258000002300222370BA48002302F046FB0022F9
:102590000023B84802F041FB00220023B64802F0B5
:1025A0003CFB00220023B54802F037FB0022002349
:1025B000B34802F032FB00230022B24802F02DFBA8
:1025C00005232B700023B04A1360B04A23701370A8
:1025D00001222A70AE4A13600FB0F0BDFF2200271F
:1025E00012022000002103F0F5F80A21200003F078
:1025F00029F9200002F0BCFFA64C0A222188A64837
:10260000013189B2218003F07CFEA44BA44E1F60EF
:10261000A44B1B68B370FF23F370238833711B1224
:102620007371FFF763FFA04B062218605960012306
:10263000009728213000FFF7D7FD0223934C2B7021
:102640002378002BFCD0FFF731FF984B18605960BE
:1026500000233C202370FFF7B9FE954C200001F0C9
:10266000C3F8200002F018FB924B18605960B3E7E2
:10267000FF2220001202002103F0ACF80A21200002
:1026800003F0E0F8200002F073FF8B4C04A962799C
:10269000237912029B187F4A884813800022002366
:1026A00004920593FFF789FD049A059B0AA802F09E
:1026B00099FA0AA96E4802F036FB0AA802F0ACFAB1
:1026C00006A802F085FA06A801F0A0F906A9694853
:1026D00002F029FBA3787A480622C370714B0C21C3
:1026E0001B688370002300930133FFF77DFD674B68
:1026F0001A78002AFCD000220AA81A7002F068FAA0
:102700000AA801F064F80AA95B4802F00CFB3C201F
:10271000FFF75CFE06230AA82B7002F07DFA06A8DC
:1027200002F07AFA58E7FF222000002103F052F865
:1027300020000A2103F086F8200002F019FF4B4C1C
:102740002378002B2AD00026267001F00DF85A4B72
:102750005449DA7809688A4201D0FF2A37D1597979
:102760001A79090252184D4E5649574C0A80326860
:102770009B78120113510AA802F02AFA0AA801F064
:1027800045F90AA802F088FA33681B01E41803230C
:10279000A060E1600AA82B7002F03EFA3C4B1B6877
:1027A000012B00D018E7384B1A6801321A601968FB
:1027B000464A914203DD00221A6003232B70444BEA
:1027C0005B78002B00D107E703232B7004E73C2044
:1027D0002670FFF7FBFDE1E73E4A2000002102F0F2
:1027E000F9FF0A21200003F02DF8200002F0C0FEBE
:1027F0002C4B394C1B68A370FF23E370314B1B88B3
:1028000023711B126371FFF771FE274B186059602B
:1028100020002D4B0D301A6822739A68DB68FFF791
:10282000C1FC0023062200933C2101332000FFF766
:10283000DBFC164B1A78002AFCD000221C4C1A70C4
:10284000200000F0D1FF200002F026FA234B186090
:10285000596013233C202B70FFF7B8FDBCE6C0463F
:10286000DC0400203C03002060030020F40400206E
:1028700090050020A0050020B0050020C005002024
:10288000D0050020E005002050060020790500203A
:102890004C0600207A050020A410002050030020E0
:1028A0005C00002010000020580300206803002076
:1028B00040030020C8040020F9040020FF04002089
:1028C00014000020F60400207003002050C3000014
:1028D0004806002000FFFF0020000020C004002068
:1028E000524B1A78002A12D0002251491A700B78E4
:1028F000052B0CD14A790B7912029B184D4A9BB2D9
:1029000013804D4A12889A4201D101235DE74B4C56
:10291000200000F069FF200002F0BEF9484B18606B
:102920005960484B1A685B68801A994106F090F824
:10293000454B1A685B6807F00BFF0022434B07F01A
:1029400007FF434B002218605960424B05F02CFFF3
:102950000028DAD1FFF7AAFD3F4B186059603BE62B
:102960003E4A0021200002F035FF0A21200002F03B
:1029700069FF200002F0FCFD2C4B1A78002A00D1E0
:102980002AE600222A4C1A70354AE37812689342EC
:1029900002D0FF2B00D01FE60026002706A802F079
:1029A00017F906A801F032F806A92E4802F0BBF983
:1029B00002A92D4802960397FFF7FFFB029A039B9B
:1029C0000AA802F00FF90AA9284802F0ACF90AA8EF
:1029D00002F022F904A9264804960597FFF7EDFBBB
:1029E0002279154B00201A80FFF7F0FC049A059B12
:1029F0000AA802F0F7F80AA91E4802F094F90AA8FA
:102A000002F00AF91C4E1D49300003F00EFC1C4C6C
:102A10002000FFF733FC0A220100300003F08BFC9A
:102A20002000FFF72BFC00232B7078E6F404002035
:102A3000F9040020F60400207A050020400300205D
:102A400058030020C00400200800002000408F40F0
:102A5000B004002000004E408005002000FFFF0071
:102A600010000020E005002006050020C005002021
:102A7000FF040020D0050020A4100020B0E50000D5
:102A80008805002007B5002009F054FE6B46073387
:102A9000181A0EBD70B58B48A6B002F017FD0A20BB
:102AA00003F0FEF9E121884C4902200003F0D0FF39
:102AB000200003F0CFFF002802D10A3003F0AAF86B
:102AC0008249200003F0B1FB814803F0A3F881495B
:102AD000200003F0AAFB804D280002F0F3FB002841
:102AE00003D17E49200003F0BBFB280002F05EFC0E
:102AF000061E1FD17A49200003F0B2FB794A7A49B9
:102B000006A802F087FB06A9280002F0E3FB77493C
:102B1000200003F0A5FB28230193153B0093744983
:102B20000296023B0A2206A802F05CFB06A92800D6
:102B300002F0D0FB04AD6F49200003F091FB2800A8
:102B400002F052FCFA232978DB00C9180A2220007F
:102B500003F0D3FB684E2000310003F066FB697878
:102B60000A22200003F0E3FB3100200003F05DFBAC
:102B7000A9780A22200003F0DAFB6049200003F064
:102B800054FBE9780A22200003F0D1FB5C4E2000C0
:102B9000310003F04AFB29790A22200003F0C7FB29
:102BA0003100200003F041FB0A226979200003F084
:102BB000BEFBFA20800003F02DF8002003F0DAF9C4
:102BC00005F036F94F49200003F040FB4E49200044
:102BD00003F046FBFFF756FF0A220100200003F036
:102BE00090FB0921112000F0BDFA132001F0FCFA3E
:102BF0004649200003F02AFB01F044F801F074F983
:102C0000062000F039FB0A2000F02EFB404801F0BE
:102C10005FF901F0A7FE3F49200003F017FB06A86B
:102C200000F010FD3C49200003F0FFFA06A9200047
:102C300003F016FB06A800F023FD3849200003F03E
:102C4000F4FA06A9200003F00BFB06A800F038FDFB
:102C50003349200003F0E9FA06A9200003F000FB45
:102C600006A800F0A9FA2F49200003F0DEFA06A911
:102C7000200003F0F5FA2C4B2C4A00201A602C4B54
:102C80002C4A1A602C4B2D4A13602D4A13602D4B91
:102C90002D4A1A60FFF79AFB0023002000212B4ADF
:102CA0002B4E13702B4D2C4C2C4A33702B702370F1
:102CB0001060516073706B7063709060D16026B06B
:102CC00070BDC046DC040020A4100020BEE500005A
:102CD00088130000C9E50000F8040020DCE50000CE
:102CE000EEE5000002E600000BE6000017E600003B
:102CF000E407000028E60000ACE50000AAF00000B0
:102D0000AEE5000035E6000050E600005EE600009B
:102D100025E8000075E6000091E600009DE6000051
:102D2000A9E60000C7E6000000070020852100009A
:102D30001007002015210000092100000C070020C9
:102D4000E8060020E0060020FD20000060030020CF
:102D500030060020480600203206002038060020F9
:102D600070B5244D522308220121280002F01CFDD9
:102D7000214C22492200280005F08AF9204D2149E2
:102D8000280005F0B8F820492200280005F080F955
:102D900000231E4A1E4D1F482A606B6001F018FF79
:102DA0001D4801F015FF1D4801F012FF1C4801F0FD
:102DB0000FFF1C4801F00CFF1B4801F009FF1B48E6
:102DC00001F006FF1A4801F003FF1A4801F000FF66
:102DD000194801F0FDFE22001849280005F058F9B5
:102DE000174D280001F0F4FE28002200154905F0D7
:102DF0004FF970BDDC04002000000020B154000039
:102E0000D00400201EED0000677E00004A78DE112D
:102E10008805002090050020A0050020B0050020B6
:102E2000C0050020D0050020E0050020F0050020AE
:102E30000006002010060020200600202D210000A2
:102E400040030020194C0000F0B5040085B01E00BE
:102E50000AAB1B78103001930BAB1B781700029361
:102E60000CAB1B780D00039300F016F92000243002
:102E700000F012F9220000234032A363E3631370D1
:102E800063729D4205D10A4B0A4A22210A4808F082
:102E9000AFFC6B461B79200063716B461B7A256083
:102EA000E3716B461B7B2771A671237205B0F0BDE1
:102EB000D5E600003AE70000E6E60000437A002B82
:102EC00004D18372C372C36001334372704730B55B
:102ED000040085B002AD00680291039203F020FB6C
:102EE0006B79227AE17900932068002303F0C2FC19
:102EF0002979029A206803F037FB206803F006FB6B
:102F000005B030BD70B518260400FFF7D7FF3300B9
:102F1000082120790D4D4343EB18595603F0FAF878
:102F200033000821A0794343EB18595603F0F2F817
:102F3000082160794643AD19695603F0EBF8044B5C
:102F4000200006CBFFF7C3FF70BDC046CCE80000F1
:102F50009806002010B54B1C0BD0102909D0EFF3B8
:102F6000108472B6102905DD02238372002C00D173
:102F700062B610BD0123827A1A43827218224A4334
:102F80000449891816228A569340C2681343C360C5
:102F9000ECE7C046CCE8000007B5837A00910192C7
:102FA000002B07D09A070AD5EFF310835A425341FA
:102FB000C37272B60099019AFFF789FF07BDDB075C
:102FC000F8D5C368014A9BB29360F3E7001800404C
:102FD000837A002B05D09A0704D5C37A002B00D042
:102FE00062B67047DB07FCD5C368024A9BB2D36068
:102FF000F7E7C0460018004010B5006803F099FAE2
:1030000010BD00001FB5094A094B0A49136000238F
:1030100053711371029301330193163300931622F7
:1030200001330548FFF710FF05B000BD98060020EA
:1030300000093D000410002054060020094B1868C8
:10304000002809D1EFF310820749002A08D172B68F
:10305000BFF35F8F01320A701A6801321A6070473D
:103060000870F9E7A4060020A0060020084B1A68A3
:10307000002A0CD01A68013A1A601B68002B06D18E
:10308000044B1B78002B02D0BFF35F8F62B67047F2
:10309000A4060020A0060020FF23002110B5040094
:1030A0000370FC3B41708170C170017143710C224F
:1030B000083008F050FC200010BD000001220B0079
:1030C00010B5134008D00D4B1A7004234370836869
:1030D000002B00D0984710BD0222114204D00749AE
:1030E0000A704370C368F3E704231942F3D0034A1C
:1030F0001370033343700369EAE7C0464E4800414A
:1031000010B5FFF79BFF0C4B1B8C1B071B0F0B2BEA
:103110000FD80A4A9900885800280AD00F24084975
:103120000A78A24313430B70064B1978C9B2FFF714
:10313000C5FFFFF79BFF10BD00480041A806002017
:103140003F4800414E48004110B5054C0121207018
:1031500002F084FF2078012102F0B0FF10BDC046CC
:103160001807002070B5040005200E0002F052FD83
:103170000221200002F072FF0A4D2800FFF7C2FE74
:1031800028002100FFF7E6FE0022074B07491E70CA
:10319000074B20001C70074B1A70023202F0DAFB5A
:1031A00070BDC046540600201A07002051400000A0
:1031B00019070020DD0600201FB5234B1A781023C5
:1031C000012A03D0023A534253419B011F4A402433
:1031D0001278012A10D02419052A0DD0092A23D0EB
:1031E0000D2A24D0022A25D0062A26D00A2A26D043
:1031F000033A544254412403154A11786E2200299F
:1032000007D001291ED002394A425141114A494290
:103210000A401149097802911049097800940191F6
:103220000F4909F057FA1FBD80246400E4E78024A9
:10323000A400E1E78024E400DEE7C024FBE780246B
:103240002401D9E7074AE4E78B0000208A00002028
:103250008E000020901A00008C00002089000020C1
:10326000D6E7000052030000024B9870000AD870A5
:103270007047C04606070020024B1870000A5870BD
:103280007047C0460607002010B5042200210248FE
:1032900008F061FB10BDC046340700200321084A36
:1032A000084093788B4303439370064A093193781F
:1032B0008B4381000B439370034B18707047C046DB
:1032C000380700203D0700208B0000200F2310B599
:1032D0003C240C4903408A78A2439C0022438A7014
:1032E0000B2208211040084A012806D01021092885
:1032F00003D02021022B00D040211170034A13700B
:1033000010BDC046380700208D0000208A00002034
:10331000421E90410323404203400320034A0449D4
:1033200013708A78824313438B7070470A0700201A
:103330001B0700201F233F21064A184093780B40AB
:1033400081010B439370C10083100B43D370024B78
:10335000187070473D070020890000200F23184097
:103360000301124A10B503431370114B1870114B2F
:103370001B78012806D10130012B00D00A20FFF76D
:10338000D9FF10BD032803D10330012BF6D1F6E796
:10339000042801D0072804D10820012BEFD01220E7
:1033A000EDE7012BEAD10420E9E7C0463D07002004
:1033B0008C0000208B000020014B1878C00970475A
:1033C000D8060020024B58784007C00F7047C0460F
:1033D000D8060020054A064B12785B780120002AA7
:1033E00002D09B11184070475B11FBE7880000205A
:1033F000D80600200120064B9A785B789110014294
:1034000005D1D91103D11B11034200D110407047DF
:10341000D8060020054A937858115B101843D378DA
:103420009B101843012318407047C046D80600205F
:103430000120034BDB785A10024200D1184070473C
:10344000D806002010B5D4088C420AD200190724EF
:1034500014400122A2400178D2B2002B02D01143C5
:10346000017010BD9143FBE710B503000022042159
:103470000148FFF7E7FF10BD1B070020012310B52F
:1034800043400C2204210248FFF7DCFF10BDC04678
:103490001B07002010B50300092204210148FFF793
:1034A000D1FF10BD1B07002010B503001D22042111
:1034B0000148FFF7C7FF10BD1B07002010B5030030
:1034C000072204210148FFF7BDFF10BD340700208B
:1034D00070B50500064C03000D2220000421FFF703
:1034E000B1FF2B000E2204212000FFF7ABFF70BDBF
:1034F0003407002070B505000C4C03001222200098
:103500000521FFF79FFF2B0020000F220521FFF769
:1035100099FF2B0020000C220521FFF793FF2B00C1
:10352000102205212000FFF78DFF70BD3407002019
:1035300010B50300112204210148FFF783FF10BDDD
:103540003407002010B503000A2204210148FFF7C8
:1035500079FF10BD3407002010B5030003220421B9
:103560000148FFF76FFF10BD34070020054B10B571
:10357000187001231222434004210348FFF762FF21
:1035800010BDC046E40600201B070020002330B514
:103590009CB2A24205D90D00DC002541C55401337F
:1035A000F6E730BDF0B585B00092019303ACFF297A
:1035B0001DD101272070204B204D1B68280006CB11
:1035C000FFF7EAFC1E4B0021187802F077FD002679
:1035D000B3B29F421CD8009C019BE618A6421DD0A6
:1035E00000212800FFF708FD20700134F6E7402392
:1035F00018432070CAB27F2902D862700227DAE726
:1036000080235B421343C9116370A1700327D2E783
:10361000A15D2800FFF7F0FC0136D9E75023013BFC
:10362000FDD1074B0121187802F048FD2800FFF773
:10363000CFFC05B0F0BDC046840000205406002039
:103640001807002030B585B003AC05002200042324
:10365000FF210020FFF7A6FFE078A27800020243D6
:103660000F20217863780840090901900091280013
:10367000024909F02FF805B030BDC04628E8000027
:1036800030B5050089B006AC22000823FF210120D7
:10369000FFF788FF2178A379E27905916178280006
:1036A0000491A1780391E1780291217901916179E6
:1036B0000091024909F00EF809B030BD54E800004D
:1036C00037B5050001AC22000423FF210320FFF7DA
:1036D00069FF62782378E17812021343A278090225
:1036E0000A432800014908F0F5FF37BD7CE80000D7
:1036F000042310B5024AFF211800FFF753FF10BD45
:103700001B07002010B50523024AFF210F20FFF7F9
:1037100049FF10BDD806002010B50423024AFF213E
:103720000320FFF73FFF10BD0607002010B504235C
:10373000024AFF210E20FFF735FF10BD340700209D
:1037400010B50423024AFF211F20FFF72BFF10BDF5
:103750003D07002010B50523024AFF210820FFF78E
:1037600021FF10BD3807002013B5114B1B78022B29
:103770000FD1104A537810781B0218438005800D32
:103780000D4B1B78002B03D0022801D9023880B2E0
:1037900016BD0020012BF3D101AC03331030220001
:1037A000FF21FFF7FFFE637820781B02E5E7C046A4
:1037B000DD060020380700208800002010B5020038
:1037C0000B1E03D0FF211120FFF7ECFE10BD13B537
:1037D000040005236A4600211720FFF7E3FE69462F
:1037E000200001F01DFA13BD13B5040005236A463D
:1037F000FF210620FFF7D6FE6946200001F010FAEF
:1038000013BD0000F7B5022301AC6A460621122061
:10381000FFF7C8FE042310202200FF21FFF7C2FE9D
:103820006B465E781B7836021E43A078E378001161
:103830001B011843224B1B78012B3DD0214D224CFC
:1038400006F020F8071C300006F01CF89021C9058E
:1038500005F0A2FC391C061C381C05F09DFC011C5F
:10386000301C05F0C1FA04F01BFC07F0E9FD002252
:10387000164B06F06DFF0600201C0F0007F0E0FD60
:1038800002000B003000390007F0D4F907F02AFEDF
:103890000F49041C04F0AEFF00280BD10D49201C79
:1038A00005F008F9291C05F077FC011C201C05F027
:1038B00001F9041C201CFEBD074D084CC0E7C046A2
:1038C0008B0000206D56953FE17AF34200002440C2
:1038D0000000B0C20000B0426D5615403D8AE34280
:1038E000F0B585B00700FFF78DFF3F4905F0E2F81E
:1038F0008023FC211B06C018890505F04DFC061C21
:1039000005F056FF00B200284BDD431C1BB2102B04
:103910004ADC364A1178364A1278042901D0072940
:1039200048D1012A42D1334AD45C062B00DC6442E0
:1039300024B26400155C062800DC6D422DB26D00D7
:1039400005F056FF011C301C05F058FD061C601BDD
:1039500005F04EFF011C301C05F01EFC041C280065
:1039600005F046FF011C201C05F0A4F8041C684665
:1039700001F02EF92049201C05F00EFC1F4905F02E
:103980000BFC05F015FF02B2D317684601F045F9AC
:103990006946380001F0F0F9684601F03DF905B0DC
:1039A000F0BD00231800B4E71123FBE7022AF6D18B
:1039B000134AB9E7012A0AD1124AD45C092B00DC68
:1039C000644224B2155C09280CDC6D420AE0022A2C
:1039D000E5D10D4AD45C072B00DC644224B2155CAF
:1039E0000728F2DD2DB2ABE7000074428C00002006
:1039F0008B000020B2E70000B32355436F12833AD7
:103A0000C4E700008EE70000A0E7000013B5040043
:103A100005236A4600211520FFF7C4FD69462000F2
:103A200001F0FEF82000FFF75BFF13BDF0B585B095
:103A30000092019303ACFF291FD1802301275B4231
:103A4000184320701F4B204D1B68280006CBFFF742
:103A5000A3FA1E4B0021187802F030FB0026B3B207
:103A60009F421CD8009C019BE618A6421DD02178DD
:103A70002800FFF7C1FA0134F7E740235B421843FF
:103A80002070CAB27F2902D862700227DAE7802349
:103A90005B421343C9116370A1700327D2E7A15D94
:103AA0002800FFF7A9FA0136D9E75023013BFDD1E1
:103AB000064B0121187802F001FB2800FFF788FA75
:103AC00005B0F0BD84000020540600201807002037
:103AD00037B5002101AC05000423220036200191F6
:103AE000FFF760FD002D0ED10F4B104A25701A60B4
:103AF0000122637893436370022322000021362061
:103B0000FFF794FF37BD012D08D1074B084A1A6013
:103B10000322237893431D432570EDE7022DEBD15B
:103B2000014B024AF3E7C046840000202007002032
:103B30002807002013B501AC22000423FF211E201A
:103B4000FFF730FD6378217818339940A37820007F
:103B500010339940E378042208339940064B19400A
:103B6000064B1943FFF712FD04232200FF211E20FC
:103B7000FFF75CFF13BDC046FF0000FF001F1F00E2
:103B8000042310B5024AFF211800FFF74FFF10BDB4
:103B90001B070020054B10B51870002804D0012029
:103BA000FFF782FCFFF7ECFF10BDC04604070020C2
:103BB00010B50423024AFF210320FFF737FF10BD91
:103BC0000607002010B50423024AFF210E20FFF74C
:103BD0002DFF10BD3407002037B5051E124C0AD149
:103BE000FFF7A6FCFFF7EEFF1022E3789343E370A4
:103BF000FFF7C6FF37BD0120FFF79AFCFFF7E2FF92
:103C0000FA2000238000684301AA80B210700012DD
:103C100050705380FF2104330C20FFF707FF10235F
:103C2000E2781343E3E7C0461B07002010B50423E6
:103C3000024AFF211F20FFF7F9FE10BD3D070020BB
:103C400010B50523024AFF210820FFF7EFFE10BD43
:103C50003807002070B50425084C2A0000212000F8
:103C600007F079FE402300222370054BFF211A70D4
:103C70000D202B002200FFF7D9FE70BD3007002079
:103C8000DD06002010B5FFF7E5FFFFF745FDFFF764
:103C90002FFDFFF755FDFFF75DFDFFF747FD10BD59
:103CA00037B501AC2200042300213620FFF77AFC4F
:103CB0000123002523702200033300213620FFF763
:103CC000B5FE2900220004233620E570FFF7AEFE82
:103CD0000A2001F09FFFF0232900E3702200EC3B53
:103CE00036202570FFF7A2FEFFF7B4FF37BD0000B6
:103CF00010B50D4C2078FF2802D1FFF7D1FF10BD81
:103D0000012102F0ABF92078002102F0D7F902205E
:103D100001F080FF2078022102F0A0F90A2001F0D2
:103D200079FFFFF797FFEAE71A07002070B5012532
:103D3000094B0A4C1B7820006B4000220421FFF73E
:103D400081FB637822001D4365700423FF210D2051
:103D5000FFF76CFE70BDC0468800002030070020D1
:103D600070B50125FFF76CFF114B124C1B78002238
:103D70006B4004212000FFF765FB02232278FF211E
:103D800013432370220004230D20FFF74FFE0A4B3C
:103D90000A4E1B78002B08D004220021200007F0D7
:103DA000DAFD3570FFF7C2FF70BD3370FCE7C04627
:103DB000880000203007002004070020DD060020D6
:103DC00030B5224B87B01B7804000D00022B2FD199
:103DD0001F4A023311780B43137002A800F0F8FE5B
:103DE00002A8FFF701FD290002A800F0A3FF694621
:103DF00002A800F054FF6A46002313705378012292
:103E000093436A46FF2153700A200523FFF70EFEF5
:103E1000694602A800F004FF0E4902A800F08AFFDC
:103E200002A9200000F0EAFE02A800F0F5FE09E079
:103E3000012B05D1064A013351780B435370CCE76F
:103E400000F0C6FE200007B030BDC046DD060020F1
:103E500030070020F006002073B503247C21184AA7
:103E600004405378174E8B4361010B4353706A46ED
:103E70001549B0788B7840250732002C08D12843AB
:103E8000B070302083432E3803438B70402307E00B
:103E9000A843B070022C0CD1322083438B700823CE
:103EA0001370002101232120FFF7C0FD074B1C7078
:103EB00073BD012CE5D1322003438B701023EFE753
:103EC000380700201B0700203D0700208E0000203F
:103ED00010B504000078FFF7BFFF6078FFF7DEF948
:103EE000A078FFF7F3F910BD70B5184B1D78002DC1
:103EF0002BD101242800FFF70BFA2800FFF736FB2F
:103F0000134B28001C70FFF7AFFA2000FFF7D6FA1A
:103F10002000FFF7DDFA2000FFF7ECFA2800FFF79A
:103F200011FB2000FFF718FB2000FFF7BDFA09483E
:103F3000FFF7CEFF0520FFF711FA074B04201B788F
:103F4000A34200D00A20FFF7F5F970BDDD0600207E
:103F50008800002025E800008B0000200F4B10B5E2
:103F60001B7802000C00002B01D00234A4B20C4BD1
:103F70009C4212D87F2C03D90A4B1B78002B0CD003
:103F80002300FF210920FFF751FD1F21064A537826
:103F900014708B4324121C43547010BD8800002001
:103FA000FF0300000A0700203807002010B5064C68
:103FB0000522FF21200007F0CEFC05232200FF216F
:103FC0000F20FFF733FD10BDD8060020042310B5E5
:103FD000044A0F2051780B435370FF210523FFF74C
:103FE00025FD10BDD80600200C2310B5064A5B4203
:103FF00050789178034353700523194391700F2033
:10400000FF21FFF713FD10BDD806002010B5FFF704
:1040100021FE04220021044807F09DFCFFF7E4FF85
:104020000122024B1A7010BD30070020DD0600206F
:10403000102310B5054A5B4211780F200B43137013
:10404000FF210523FFF7F2FC10BDC046D806002073
:1040500010B5FFF757FBFFF7EBF9002804D0214B11
:104060001B68002B00D09847FFF7A6F9002806D060
:104070001D4B1B68002B02D09847FFF7D9FFFFF7B5
:10408000A1F9002806D0194B1B68002B02D09847D5
:10409000FFF79CFFFFF7AEF9002803D0144B1B6815
:1040A000002B10D1FFF7B6F9002808D1FFF792F9DD
:1040B000002813D00F4B1B68002B04D10EE00E4BD1
:1040C0001B68002BF2D09847FFF78EFF0B4B1B7835
:1040D000002B03D0FFF79AFFFFF728FEFFF766FFDC
:1040E00010BDC046E8060020E006002014070020AE
:1040F0000C07002000070020100700200407002004
:1041000010B5FFF7A7FD04220021044807F023FCA7
:10411000FFF78EFF0222024B1A7010BD30070020FD
:10412000DD06002007B513006A460732137001232D
:10413000FFF77CFC07BD13B50C0001AA1070000A44
:104140000223507004212D20FFF770FC032206216A
:104150002D20FFF7E7FF012206212D20FFF7E2FFC8
:10416000042322000A212D20FFF71CFA0022062139
:104170002D20FFF7D7FF13BD7FB5002503AC02A9A3
:104180000420FFF7D8FF01AE2900220004233620C7
:1041900035800395FFF706FA3200022306212D2011
:1041A000FFF700FA0E4B290023800E4B22003380CC
:1041B00036200223FFF73AFC3200022306212D208D
:1041C000FFF734FC052001F025FD02236278290069
:1041D0001A406270362022002570FFF727FC7FBD51
:1041E000010300000080FFFF13B5FEF7ADFF0020C4
:1041F000FFF76EFC052001F00DFD214B1878FF281C
:1042000002D0022101F02AFFFFF772FD0422FA21F9
:104210001C48FFF7BBF9FFF7CBFC042200211A482A
:1042200007F099FB0020FFF729F90120FFF732F989
:10423000FFF7A6FCFFF728F8FFF7C4FC0120FFF703
:1042400047FC052001F0E6FCFFF796FF052001F092
:10425000E1FC0020FFF73CFC01AC052001F0DAFC9A
:1042600021000820FFF767FF2278084B2100092072
:104270001A70FFF760FF2278054B1A7013BDC04615
:104280001A070020060700201B0700204207002015
:104290004107002070B5CA4D94B02A78012A00D099
:1042A00028E1C849013206A8FFF770F90422C6497F
:1042B0000EA8FFF76BF90222352107A8FFF766F970
:1042C000C24C2278002A00D019E11621023208A837
:1042D000FFF75CF92A78012A00D01AE18721013220
:1042E00009A8FFF753F9FB21B94E22783378981FBC
:1042F000084202D0032B00D010E1002A04D164212F
:1043000002320AA8FFF742F9B24B1B78082B00D003
:1043100018E12B78012B00D00EE10422AE490FA842
:10432000FFF734F9337802221021012B00D0282125
:104330000BA8FFF72BF9A94E01223378042B02D0EA
:10434000D821072B00D1BC2102A8FFF71FF9327832
:10435000012A00D021E1A249033211A8FFF716F982
:104360009E4EC9213278012A04D0022A00D069E188
:10437000C221013A03A8FFF709F93678012E00D0CF
:1043800075E10422974912A8FFF700F932001E21B7
:1043900004A8FFF7FBF801220D2101A8FFF7F6F8AA
:1043A0002A78012A00D086E18F4901320CA8FFF754
:1043B000EDF88E4B1B785A1E012A00D982E1237832
:1043C0000222002B00D07BE189490DA8FFF7DEF81F
:1043D000824B1A78531E012B00D9F8E12B78012B60
:1043E00000D0E8E1834B04221B78002B00D1E0E1F0
:1043F000814910A8FFF7CAF813AC21001E20FFF76F
:104400009AFE2178002900D04BE20122703105A8E4
:10441000FFF7BCF806AA022304212320FFF706FBBE
:104420000EAA04230C212320FFF700FB07AA022376
:1044300012212320FFF7FAFA022308AA19002720E5
:10444000FFF7F4FA09AA022304212720FFF7EEFA66
:104450000AAA022306212720FFF7E8FA0FAA04235D
:1044600008212720FFF7E2FA0BAA022326212720A2
:10447000FFF7DCFA01AA012360492E20FFF7D6FAE4
:104480000CAA02235E492E20FFF7D0FA0DAA0223C0
:104490005C492E20FFF7CAFA10AA0423FF211E2030
:1044A000FFF7C4FA02AA01230B212820FFF7BEFA66
:1044B00011AA04230C212820FFF7B8FA03AA01232C
:1044C0000B212A20FFF7B2FA04AA01230B212B208B
:1044D000FFF7ACFA12AA042307212B20FFF7A6FA54
:1044E000012305AA0E212B20FFF7A0FAFFF722FBDC
:1044F00014B070BD022A00D0D8E64349D3E6012AA1
:1045000002D101320621E2E6022A00D0E2E60121D0
:10451000DDE6022A00D0E6E68D21E1E6012B06D099
:10452000013A012A00D9EFE602222021E9E6022A17
:1045300000D0E9E61021E4E6022B00D0F2E60422E6
:104540003249ECE6102B0BD12B78012B02D104223F
:104550002F49E4E6022B00D0E4E604222D49DEE6F2
:10456000202B0BD12B78012B02D104222A49D6E62D
:10457000022B00D0D6E604222849D0E6402B00D0FA
:10458000D0E62B78012B02D104222549C7E6022B65
:1045900000D0C7E604222349C1E6022A02D1023232
:1045A0002149DAE6032A02D101322049D5E6042A5C
:1045B00001D11F49D1E6052A3ED1013A1D49CCE679
:1045C0008B0000207088000007A902258E000020C3
:1045D0008A0000208D0000202D001A318C00002060
:1045E000405C000007040009071600008900002055
:1045F000330B0000E4060020755535150608000051
:1046000006180000042800009B8800006B003B3166
:1046100052001A33BE003B339A001A355E013B3517
:104620001D011A3796023B37A05C0400C06C0800DD
:10463000805C0400E03F1E00072A00D090E6033AA9
:104640009B498AE6032A02D1023AC52192E6042A4E
:1046500002D1033A95218DE6052A02D1043AC02100
:1046600088E6072A00D088E6063A932182E60222ED
:10467000B31E9343DBB2002B07D192188D4912A8C9
:10468000FEF784FF0122262182E6032E07D10422B1
:10469000894912A8FEF77AFF0122562178E696434F
:1046A000052E00D077E60422844912A8FEF76EFF9B
:1046B0000122BE216CE6022A00D07AE6804975E626
:1046C000804982E6032B01D0082B07D123780222F0
:1046D000002B01D17C4978E67C4976E6042B07D192
:1046E00023780222002B01D179496EE679496CE6E4
:1046F000052B07D123780222002B01D1764964E6ED
:10470000764962E6062B07D123780222002B01D1DD
:1047100073495AE6734958E6072B08D123780222D9
:104720008021002B01D149014FE609024DE6092BFA
:1047300007D123780222002B01D16B4945E66B4952
:1047400043E60A2B01D0112B07D123780222002B3C
:1047500001D1674939E6674937E60B2B07D1237842
:104760000222002B01D164492FE664492DE60C2B6F
:1047700007D123780222002B01D1614925E6614946
:1047800023E61A00123A012A08D823780222002BC5
:1047900002D1D721C90018E65B4916E6142B00D0D8
:1047A00016E623780222002B01D158490DE658491C
:1047B0000BE658491DE6022B00D01DE6564B04229D
:1047C0001B78002B01D0554913E6554911E6032A01
:1047D00018D12B78012B09D14F4B1B78002B02D01D
:1047E0000132504905E604224F4902E6022B00D06F
:1047F00002E6494B04221B78002B01D04B49F8E517
:104800004B49F6E5042A15D12B78012B07D1424BF1
:104810001B78002B01D04749EBE54749E9E5022B1E
:1048200000D0E9E53C4B1B78002B01D04349E0E583
:104830004349DEE5052A18D12B78012B09D1364BE7
:104840001B78002B02D0013A3E49D2E504223E49B2
:10485000CFE5022B00D0CFE52F4B04221B78002B95
:1048600001D03A49C5E53A49C3E5072A00D0C3E576
:104870002B78012B09D1284B1B78002B02D0033A4F
:104880003449B6E504223449B3E5022B00D0B3E540
:10489000214B04221B78002B01D03049A9E5304977
:1048A000A7E51F231940413319430122AFE5C04654
:1048B000E07D1E0008054008091040081D0400089E
:1048C00007060000985900003D0A0000EA51000068
:1048D000510800008E420000A30800001E450000A1
:1048E000C2050000142E00001E050000F428000080
:1048F00066060000323300005C070000E03A00006A
:10490000AE070000703D0000C2350000F508000051
:10491000AE47000075757575E406002067472707E8
:10492000676767676F4F2F0F6F6F6F6F8B6B4B2BC7
:104930008B8B8B8B5F3F1F1F5F5F5F5F9A7A5A3A4B
:104940009A9A9A9A4828080E484848488565452505
:10495000858585859272523292929292D1B171512F
:10496000D1D1D1D137B5FFF723F9FFF709F9FFF717
:104970005DF9FFF765F9FFF725F9FFF78BFC114C9F
:10498000200000F089F908430BD10F4D2B78002B44
:1049900007D180220023D201200000F03EF901233C
:1049A0002B706946200000F07AF96A460223FF2145
:1049B0001820FFF73BF802236A4604492E20FFF730
:1049C00035F837BDF0060020050700200418000068
:1049D00010B50A4C200000F0FBF8094A09492000F4
:1049E00003F056FB084A094B094913600023537131
:1049F0001371084A11605371137110BDF006002045
:104A000000000020194C000020070020808D5B0072
:104A100080841E002807002010B50400503000F0EC
:104A2000FBF82000403000F0F7F82000303000F0B4
:104A3000F3F82000203000F0EFF82000103000F0F4
:104A4000EBF8200000F0E8F8200010BD70B58025DC
:104A500004006D002900002003F0FBF923006833F7
:104A600018702900002003F0F4F96934207070BD3B
:104A700010B5040000F0ACF82000103000F0A8F8E9
:104A80002000203000F0A4F82000303000F0A0F822
:104A90002000403000F09CF82000503000F098F8E2
:104AA0002000FFF7D3FF200010BD002303707047E4
:104AB0007047000010B50648FFF7AEFF0548FFF746
:104AC000ABFF0548FFF7A8FF0448FFF7A5FF10BD9F
:104AD000C808002048080020C80700204807002018
:104AE00070B50E48FFF7C4FF0D48FFF7C1FF0D4832
:104AF000FFF7BEFF0C48FFF7BBFF0C4D0C492A0027
:104B0000002003F0C5FA0B4C2000FFF7CEFF2A006F
:104B10000949200003F0BCFA70BDC04648070020D8
:104B2000C807002048080020C80800200000002016
:104B3000B54A000043070020B14A0000F0B5846880
:104B4000C568230089B00F002B4306D130213800FF
:104B500001F06FFB012009B0F0BD002301939D42DD
:104B60000ADA2D21380001F064FB2B002200002519
:104B700054429D410123019300260A220023200074
:104B8000290003F055FE0A235B424343721C1C19A3
:104B900002AB9C550D000400D6B20143EDD1019B40
:104BA000F41802AB013EE4B2F6185D1EB5420CD01B
:104BB000337819003731C9B2092B01D83033D9B253
:104BC000380001F036FB013EF0E72000C3E70000AB
:104BD000034B00220833036000238260C3607047E8
:104BE0009CE8000030B51D001400034B8460C560D4
:104BF0000833036030BDC0469CE80000054B00222E
:104C00000833036000238260C3608A68CB688260D7
:104C1000C36070479CE8000070478260C3607047C3
:104C20000022002370B505000E0000248260C360DE
:104C3000305DE200002103F077FDAB6801341843DA
:104C4000EB68A8601943E960052CF1D170BD000044
:104C500070B5151C0400080004F0CAFD291C04F0FE
:104C60009BFA044904F098FA03F066FEA060E16044
:104C700070BDC0469A997947D0B500260027040038
:104C8000044B8660C76008330360FFF7E1FF200034
:104C9000D0BDC0469CE80000C1688068704770B510
:104CA0000D00060005220021280006F054FE002415
:104CB000B068F168E20003F029FD28550134052CA5
:104CC000F6D170BD70B50E49C46885680C40261ECB
:104CD0000EDA01204042C1172D184E41094A280022
:104CE000324311000023012212184B4115001E000F
:104CF0003100280003F056FE034904F04DFA70BD60
:104D0000FF00008000FFFFFF3548833730B5826821
:104D1000C368002B06DA802500246D0012196B4150
:104D20008260C36030BD884203D08A68CB688260ED
:104D3000C360704730B58A68CB688468C56812194B
:104D40006B418260C36030BD30B5150087B0040090
:104D500002A8FFF753FF04980599AA68EB68121898
:104D60004B410090019102A9200004920593FFF7A6
:104D700045FF200007B030BD30B58A68CB68846835
:104D8000C568A41A9D412B0022008260C36030BD1B
:104D900030B5150087B0040002A8FFF72FFF049A72
:104DA000059B0092019300980199AA68EB68801A0C
:104DB000994102000B00200002A904920593FFF71D
:104DC0001DFF200007B030BD30B5150085B00400D0
:104DD0006846FFF713FF029A039BA868E96803F08F
:104DE0004BFD0290039169462000FFF707FF20006A
:104DF00005B030BD30B5150085B004006846FFF73A
:104E0000FDFE02980399AA68EB6803F011FD029079
:104E1000039169462000FFF7F1FE200005B030BD88
:104E200000207047F8B505000E0017000024BC42B2
:104E300008D02B68315D1B6828009847002801D0F6
:104E40000134F4E72000F8BD70470300FC33196A11
:104E5000DA69914203D01B6AC018007E70470120B6
:104E60004042FBE70300FC33D8691B6AC01A01D536
:104E70000130FF3070470000F7B50193FA23802618
:104E8000002504009B008360124B760008330F005E
:104E900045602900009203603200183006F05BFD87
:104EA00023002000FC332130DD6132001D62290027
:104EB000FF3006F050FD87239B00E3185D609D6086
:104EC0006B461B78276123756B461B79A5752000FF
:104ED0006375FEBDA8E8000070B5060018250C49F2
:104EE000006901F0F1FC306901F05EFB2B00082144
:104EF000307D084C4343E318595601F00BF9082163
:104F0000707D45436419615601F004F970BDC046D7
:104F1000A0860100CCE800008A2300229B00C15437
:104F20000C3BC3185A609A600123837570470200D6
:104F300010B5FC32536894680133DBB29C4202D056
:104F400054680155536010BDF7B5002405001700E3
:104F500001932000A24227D02B00FC33DC611C62AD
:104F60000122286901F05EFBA0421CD02E001836F9
:104F7000286901F0C6FB013401003000FFF7D7FFBC
:104F80002869A74206D001F02DFB0221286901F013
:104F900033FBEDE701F01DFB019B002B03D0032148
:104FA000286901F029FBE0B2FEBD10B50123FFF72F
:104FB000CBFF10BD002210B5837D93420DD0872317
:104FC0009B00C4186368A4680133DBB2A34204D019
:104FD0002130FF30FFF7ABFF0122100010BD0300AE
:104FE000FC3399685A68914206D09A68805C9A6846
:104FF0000132D2B29A60704701204042FBE70022A2
:105000008A2370B59B00827505000E00C15C0069A3
:1050100001F008FB002806D10321286901F0ECFA11
:105020000224200070BD872328009B00EA185368E3
:1050300094682130FF301C1B01D50134FF34002C53
:105040000ED02C69FFF7CBFFC1B2200001F017FB97
:105050000028E8D10321286901F0CEFA0324E0E713
:10506000002EDED00321286901F0C6FAD9E710B579
:105070000121FFF7C4FF10BD10B51830FFF7AFFFD7
:1050800010BD70B50400006901F019FB002814D0B0
:10509000206901F022FB002810D0206901F0A2FA5B
:1050A0000321206901F0A8FA8C239B00E558002D0C
:1050B00039D10023FC34E361236270BD206901F023
:1050C00016FB002809D0206901F00CFB002804D051
:1050D000206901F011FB0028DFD0206901F007FBF7
:1050E000002826D1206901F0F3FA0028E5D02069D4
:1050F00001F002FB002837D087239B00E218536899
:1051000092689B1A01D50133FF33FF21002B05D094
:1051100020002130FF30FFF762FFC1B2206901F0AB
:10512000C0FAA075C9E7236820001B699847A84703
:10513000BFE7206901F056FA2069032101F05CFA0B
:10514000206901F0D9FA0028B7D0872300229B00FC
:10515000E3185A609A600123A3758B239B00E358E0
:105160009342AAD09847A8E72200FC32D369126A7A
:105170000133DBB22069934206D101F02AFA032100
:10518000206901F039FA98E701F0BBFA010020002C
:105190001830FFF7CCFE206901F024FAEFE7000099
:1051A00010B50248FFF76DFF10BDC046480900204A
:1051B00010B51523142202490248FFF75DFE10BD09
:1051C00000100020480900200378303BDBB2092B97
:1051D00000D900230A22534340783038C018C0B2A7
:1051E00070470000F0B505AC2678084F06AC25786E
:1051F00007AC2478B94202D9054FC91989B2C670E3
:1052000005710170427083704471F0BDCF070000DA
:1052100030F8FFFF7FB501AD0400160028000B2217
:1052200006F07DFB0D206844FFF7CEFF2070287844
:105230004138122815D803F0DFF830141442142E28
:105240001414140A141436403E1414143C006A78E2
:105250000123612A04D0AB786E3B5A1E934106337A
:10526000637002A8FFF7B0FF08223100A070280089
:1052700006F055FB2800FFF7A7FF6B46E070D81D2E
:10528000FFF7A2FF20710A206844FFF79DFF6071BD
:10529000200004B070BD0223E2E7AA780423722A3A
:1052A000DED0DB18DCE7AA780323722AD8D00233D9
:1052B000D6E70923D4E70A23D2E70B23D0E70C2350
:1052C000CEE7000010B50248FFF706FE012010BD32
:1052D00048090020F8B50E00334C68212000FFF784
:1052E0001BFE03212000FFF765FE77790A213800B5
:1052F00003F096F80625010069437918C9B2200029
:10530000FFF758FE37790A21380003F089F80100C9
:1053100069437918C9B22000FFF74CFEF7780A21DB
:10532000380003F07DF8010069437918C9B2200004
:10533000FFF740FEB7780A21380003F071F801004A
:1053400069437918C9B22000FFF734FE002120001C
:10535000FFF730FE77780A21380003F061F801008A
:1053600069437918C9B22000FFF724FE36780A2174
:10537000300003F055F845437519E9B22000FFF7F6
:1053800019FE2000FFF773FE20006821FFF7C4FD1F
:1053900002212000FFF70EFE00212000FFF70AFE89
:1053A0002000FFF764FEF8BD4809002010B50D4C41
:1053B00068212000FFF7B0FD02212000FFF7FAFD71
:1053C0002000FFF754FE012268212000FFF7EDFDC9
:1053D0002000FFF751FEE0231840E038431E9841BB
:1053E000C0B210BD48090020F0B5304C87B00600AF
:1053F00068212000FFF790FD03212000FFF7DAFD70
:105400002000FFF734FE072268212000FFF7CDFDC2
:105410002000FFF731FE7F23062518406D4203115F
:105420006B43C018C3B220000593FFF725FE0F277A
:1054300003113B406B431818C3B220000493FFF7DD
:105440001BFE03113B406B431818C3B220000393AB
:10545000FFF712FE03113B406B431818C3B2200044
:105460000293FFF709FE2000FFF706FE03113B4001
:105470006B431818C3B220000193FFF7FDFD031121
:105480001F406B461B797D4373706B461B7A28184F
:10549000B3706B461B7B3070F3706B461B7C300027
:1054A00033716B461B7D737107B0F0BD4809002056
:1054B00010B50400C06806F00BFA0623E05E002871
:1054C00002DB002100F0CAFD200010BD10B5040071
:1054D0000623C05E002807DB012100F0BFFD062384
:1054E000E05E002100F0EAFD0123637010BD70B59D
:1054F0000500C0680E0006F0EBF92B7CEC7CE41A8A
:10550000631E9C4103347443A4B2AC80200006F0B7
:10551000D5F9E860002805D02200002106F01BFA2A
:105520006E8070BDA8806880FBE70322F8B58B1100
:105530000D118E101640134015400A4046748274B7
:105540000026FF228A427641C268C47C077CC3746D
:1055500005740670002A0AD0E21B5B1B51424A41C7
:1055600059424B419A4202D04188FFF7C0FFF8BD33
:10557000F8B5C3680400002B00D1F3E0656900F0C2
:1055800019FB854202D900F015FB606100F012FBA7
:105590006369C01A2C23FF339842EFD972B60622F2
:1055A000A35E1822012053436F4FA688FA18526851
:1055B000DB5D9040E268DB019619511C15786B4A5F
:1055C0009F186B4A9B182278002A00D058E080323E
:1055D00094463860C046C046C046C046C046C04635
:1055E000C046C046C046C046C0462A4200D192E0EE
:1055F000C046C046C046C046C046C046C046C0467B
:10560000C046C046C046C046C046C046C046C0466A
:10561000C046C046C046C046C046C046C046C0465A
:10562000C046C046C0461860C046C046C046C046D8
:10563000C046C046C046C046C046C046C046C0463A
:10564000C046C046C046C046C046C046C046C0462A
:10565000C046C046C046C046C046C046C046C0461A
:10566000C046C046C046C046521000D170E0D2B21B
:10567000C046C046C046C046C046C046C046A8E771
:10568000802294463860C046C046C046C046C046E8
:10569000C046C046C0462A4221D0C046C046C04689
:1056A000C046C046C046C046C046C046C046C046CA
:1056B000C046C046C046C046C046C046C046C046BA
:1056C000C0461860521020D0D2B2C046C046C04674
:1056D000C046C046C046C046C046C046D2E7186075
:1056E000C046C046C046C046C046C046C046C0468A
:1056F000C046C046C046C046C046C046C046C0467A
:10570000C046C046C046C046DCE7B14226D20D784E
:1057100062460131B6E71860C046C046C046C04682
:10572000C046C046C046C046C046C046C046C04649
:10573000C046C046C046C046C046C046C046C04639
:10574000C046C046C046C046C046C046C0466BE7DD
:10575000B14203D20D78624601313AE762B600F0F9
:1057600029FA6061F8BDC046CCE800001844004149
:105770001444004170B5437804000D00002B06D09E
:105780000623C05E002802DB002100F067FC63787E
:10579000E580002B07D00121280000F05FFC0021EC
:1057A000280000F08BFC70BD70B5150000220400CD
:1057B0000E0042700272C26042611900FFF7B5FE2E
:1057C00031002000FFF793FE29002000FFF7D2FFF1
:1057D000200070BD4388F7B58B421AD9037A150CA7
:1057E000140A002B16D1E4B2EDB20194D6B2B4463D
:1057F000047CC67CC768B44218D1032359437F1880
:105800006A46037C1279FD54437CFA546246837CD9
:10581000FA54F7BDFF26344035405C4316405D43E3
:105820005E43240A2D0A0194360AE0E789007F18B6
:10583000120E002B02D1D3B2BB55E1E753431B0A32
:10584000FAE7000070B54C1C037AE4B205000A00C8
:10585000A3421AD0C6680020013BD9B2814205D0CC
:10586000FF2A0ED1094802F065FE80B20023A98804
:105870009AB2914208D9F25C42431212F2540133B7
:10588000F5E720020138EEE72C7270BDFFFF000043
:1058900010B500218288C06806F05DF810BD0000D8
:1058A00010B5024802F0DDF910BDC0467C0B0020A7
:1058B00010B5024802F0D5F910BDC046B80D002061
:1058C000F7B501240326154F1549380000F088FD6F
:1058D0001449154800F084FD1449154800F080FD76
:1058E0001449154800F07CFD1449154800F078FD76
:1058F000144D1549280000F073FD3900009623006F
:1059000001940022114802F041F900962900019407
:105910001E231F220E4802F039F9F7BDF40F0020B4
:1059200000080042000C0042F80F00200010004266
:10593000FC0F00200014004200100020001800425C
:105940000410002008100020001C00427C0B0020E6
:10595000B80D0020F7B500921822162542434F4B90
:1059600007009B185D5701916B1C4ED04C4B4D4C62
:105970001E68002E27D1310044224B4805F0EBFF72
:1059800031004422494805F0E6FF1022484B4949BE
:105990001E60CA67C021C120474B49005A50800091
:1059A0001958FF36B14319501A60444B444A5A8083
:1059B00002232278134323706378DB09012BFBD089
:1059C0000122374B1A6001231E00AE406269324348
:1059D0006261019A002A18D0102D1FD1E27813437A
:1059E000E370009B042B0BD818000723A2789A437E
:1059F00002F002FD030C0E10120005231343A370E6
:105A00002A4B019A1A64B6B2E660F7BD0423F5E7A3
:105A10000323F3E70223F1E70123EFE73800002730
:105A2000002100F077FB224B1F499C461B68BA00FF
:105A3000BB421DD16046013303608E501B4B019960
:105A40009950072D19DD0123083DAD000721A9401C
:105A5000144A9B009B189A698A439A61009A042A07
:105A6000D1D81000996902F0C7FC0B10121416006F
:105A70008858B042E1D00137D9E7AD000023E5E70F
:105A80000522AA400A439A61BDE70422F9E70322EE
:105A9000F7E70222F5E70122F3E7C046CCE8000071
:105AA0009410002000180040501000200C1000201E
:105AB0009810002004E100E000E100E0000C00404C
:105AC00005400000F8B50024094B1B68A34200D82C
:105AD000F8BD084E084FA5003369EA591A4204D0B0
