:1020000000800020096E0000D16D0000F16D00001D
:1020100000000000000000000000000000000000C0
:10202000000000000000000000000000F16D000052
:102030000000000000000000F16D00005D6E000077
:10204000F16D0000F16D0000F16D0000F16D000018
:10205000956D0000F16D0000C1320000F56D0000CB
:10206000F16D0000716B0000F16D0000F16D00007A
:1020700071540000F16D0000816B0000F16D0000F3
:10208000F16D0000F16D0000312B0000F16D0000DA
:1020900000000000F16D0000F16D0000F16D000026
:1020A000F16D0000F16D0000F16D0000F16D0000B8
:1020B0000000000010B5064C2378002B07D1054B1B
:1020C000002B02D0044800E000BF0123237010BDA4
:1020D000A00200200000000094050100044B10B590
:1020E000002B03D00349044800E000BF10BDC046E8
:1020F00000000000A40200209405010000207047A9
:102100000122014B1A707047D03E00200122014B82
:102110001A707047E002002010B50400983002F0F9
:10212000EBFE2000883002F0E7FE2000783002F05D
:10213000E3FE2000683002F0DFFE2000583002F09D
:10214000DBFE2000483002F0D7FE2000383002F0DD
:10215000D3FE2000283002F0CFFE2000183002F01D
:10216000CBFE2000083002F0C7FE200010BD0000AA
:1021700010B50449044805F0DBF90122034B1A703D
:1021800010BDC04688F70000084A00203007002034
:1021900010B501F0C9FB0100034801F0EFFB01227B
:1021A000024B1A7010BDC046553600205436002030
:1021B00010B5083004F030F910BD10B5083004F047
:1021C00075F910BD07B56B46D97107330830012288
:1021D000190004F06BF90EBD10B5022001F03EF9B4
:1021E000052001F053F9022001F0A8FF032001F0BF
:1021F00095F9012001F06CF910BD00000023F7B53E
:1022000001AD2A002B8005210233152001F0AAFA26
:1022100068782C78000224183F20A4B220400AF0ED
:1022200097F90022074B09F087FB0600A0110F0069
:102230000AF08EF902000B003000390008F056FC5D
:1022400003B0F0BD0000903F13B501AC02232200A3
:1022500000212E2001F086FA637820781B021843B3
:1022600016BD13B501AC022322000021122001F09B
:1022700079FA637820781B02184316BD13B501ACB8
:10228000022322000621122001F06CFA63782078E4
:102290001B02184316BD13B501AC04232200FF2115
:1022A000102001F05FFAA078E37800111B011843B9
:1022B00016BD10B5411D02701C06120A01302243E2
:1022C0001B0A8842F7D110BD30B585B0684602F0D0
:1022D000EFFD684601F05BFB684602F04DFE0D0025
:1022E0000400684602F008FE6B06E0091843E9099D
:1022F00007F0A2FC0022044B08F014FF0022034B5D
:1023000009F01AFB05B030BD30C1BD4180842E41BB
:1023100030B585B0684602F0CBFD684601F037FB6A
:10232000684602F029FE0D000400684602F0E4FD54
:102330006B06E0091843E90907F07EFC0022044B14
:1023400008F0F0FE0022034B09F0F6FA05B030BDAC
:1023500030C1BD4100408F40F8B506000F00FFF7C7
:10236000B3FF32003B0004000D0007F01FFB002804
:1023700006D032003B002000290009F04FFDF8BDD7
:10238000044A054B2000290008F0B0FB32003B0056
:10239000F3E7C0468CDB68900669704110B589B2DE
:1023A00001F04EFF01F04EFE10BDF8B5050000260D
:1023B00000270024285DE200002107F0C1FA013463
:1023C00036184F41052CF5D130003900F8BD30B535
:1023D00085B0684602F06CFD684601F0AFFC6846C7
:1023E00002F0CAFD04000D00684602F085FD2000E1
:1023F000290005B030BD000070B500220E4B04006E
:102400000D0007F0D3FA002810D100220B4B20005A
:10241000290007F0B7FA00280BD10022084B290049
:10242000200009F089FA0AF05DF870BD0024024D21
:10243000F3E70024014DF0E700408F4000408FC0DB
:102440000088C340F0B50D00604C87B069460600B7
:102450002000170003F08FFC03A9200003F03AFFCF
:102460002B68BB4201DB00232B602C68BC4200DBE5
:10247000A9E01C27009808F0AFFA554907F0A8FD1D
:10248000544907F07DFF0AF0CFF8FFF7B5FF7C4312
:1024900034192060019808F09FFA4D4907F098FD23
:1024A0004C4907F06DFF0AF0BFF8FFF7A5FF606029
:1024B000029808F091FA464907F08AFD454907F06D
:1024C0005FFF0AF0B1F8FFF797FFA060039808F0EC
:1024D00083FA3F4907F07CFD0AF0A6F8FFF78CFF6E
:1024E000E060049808F078FA394907F071FD0AF0C5
:1024F0009BF8FFF781FF2061059808F06DFA3449D9
:1025000007F066FD0AF090F8FFF776FF6061FFF7CD
:10251000DBFE09F0E7FF2C682F497C433419A061EA
:102520002E4C200004F0E9FF0A222968200005F063
:102530004CF82B49200004F0E0FF2B680A227B4373
:102540002000995905F022F82549200004F0D5FF14
:102550002B680A227B43F3185968200005F016F80F
:102560001F49200004F0C9FF2B680A227B43F3189F
:102570009968200005F00AF81949200004F0BDFF11
:102580002B680A227B43F318D968200004F0FEFF71
:102590001349200004F0B1FF2B680A227B43F31893
:1025A0001969200004F0F2FF0D49200004F0A5FF96
:1025B0002B680A227B43F6187169200005F013F896
:1025C0002B6801332B6007B0F0BDC046BC02002071
:1025D00000007A4400002041C7F70000084A0020AC
:1025E000C5F70000F0B505000200A3B038350400BF
:1025F0000832290006001EA802F03AFD1EA802F0CB
:10260000F5FC68360100300002F0FDFC1EA802F067
:1026100073FC2300210028331A0058311EA80193AF
:10262000270002F025FD1EA802F0E0FC783701002B
:10263000380002F0E8FC1EA802F05EFC2300210036
:1026400088332A0048311EA8009302F011FD1EA80D
:1026500002F0CCFC0100009802F0D5FC1EA802F0AC
:102660004BFC2200019918321EA802F001FD1EA8A1
:1026700002F0BCFC60350100280002F0C4FC1EA87A
:1026800002F03AFC02A802F013FC3A00310006A85E
:1026900002F00AFD2A0000990AA802F005FD0AAA24
:1026A00006A90EA802F0E4FC3A00310012A802F0DC
:1026B000BBFC009A12A916A802F0B6FC2A0016A9C3
:1026C0001AA802F0B1FC1AAA0EA91EA802F002FD77
:1026D0001EA902A802F097FC1EA802F00DFC1AA881
:1026E00002F00AFC16A802F007FC12A802F004FC93
:1026F0000EA802F001FC0AA802F0FEFB06A802F0F8
:10270000FBFB02A802F04EFC051C2068616807F084
:102710006FFA291C07F034FE09F086FF0022064BF1
:1027200008F000FD09F0DEFE040002A802F0E4FB60
:10273000200023B0F0BDC04600408F40012330B5DB
:10274000254CC500237063700B0A23716271234B03
:10275000120AA2714200D152214B8DB05B191A6846
:102760005B68A0701F48E170FFF7A3FD01F03AFE1F
:10277000684602F09DFBFE221B49920504A802F068
:10278000EBFB04A908A801F08DFC08A9684602F03B
:102790003AFC08A802F0B0FB684602F0EDFB0B0023
:1027A00002001248451912482A606B60FFF781FD4C
:1027B000802120008900FFF7F1FD0E4B1A78002AD6
:1027C000FCD0002204A81A7002F096FB684602F0C2
:1027D00093FB0DB030BDC046E10200205234002012
:1027E00030120020E802002070170000381A002084
:1027F000ED020020D03E0020F0B5604B604CA544B7
:102800009C78012C0CD022005E4914A80BF04CF8E7
:1028100014A95D4804F08CFE01205C4B9D44F0BD82
:102820001979DA780902521892B207925B78584EF9
:10283000584DDF00ED19F6190693326873680E9251
:102840000F932A686B6810921193534B5348DB190E
:102850001A685B6812921393FFF7A7FD089009911D
:102860004F48FFF7A2FD0A900B91FFF7B0FD0E9ABB
:102870000F9B0C900D9114A802F024FB14A9494859
:1028800002F0C1FB14A802F037FB109A119B14A8A8
:1028900002F018FB14A9444802F0B5FB14A802F09A
:1028A0002BFB129A139B14A802F00CFB14A93F48AF
:1028B00002F0A9FB14A802F01FFB089A099B14A8B8
:1028C00002F000FB14A93A4802F09DFB14A802F0A4
:1028D00013FB0A9A0B9B14A802F0F4FA14A93548CA
:1028E00002F091FB14A802F007FB0C9A0D9B14A8B0
:1028F00002F0E8FA14A9304802F085FB14A802F0AF
:10290000FBFA69462D4B898BDF19089A099B3A60BF
:102910007B600A9A0B9B326073600C9A0D9B2A6055
:102920006B60069B26485A00264BD152FFF75AFE91
:102930000500FFF789FCFFF794FCFFF79FFCFFF70A
:10294000AAFC01F031F801F051F801F0F3F8FFF7BB
:10295000DFFC079B049005910193069B22000093E6
:1029600019492300029514A80AF09EFFFFF746FCC0
:1029700014A9054804F0DCFD00204EE75536002080
:10298000ACFBFFFF91F70000084A00205404000050
:10299000482A002030120020381A00205C3600201F
:1029A00061360020183F0020283F0020383F0020DB
:1029B000483F0020583F0020683F00204022002070
:1029C000103F002050320020B2F7000070B5002404
:1029D0000500084B1C70084B1C7001F089FCFFF7C8
:1029E000FBFB200001F048FA280001F067FA01F033
:1029F0000FFB70BDE002002054360020F8B5394DC1
:102A00002B78002B02D00020FFF7E0FF0023364C8C
:102A10002B7020686168FFF79FFC344B0022186020
:102A20005960334B06F0C2FF002808D0102231490C
:102A30003148FFF707FDFFF747FC206061602F4E2C
:102A40003478E4B2012C2FD0002C02D0022C09D013
:102A5000F8BD01243470FFF737FC294B2C70186047
:102A60005960F5E7264F38687968FFF775FC254B04
:102A7000002218605960244B06F098FF041E08D00D
:102A800001233370FFF720FC0023386079602B703E
:102A9000DEE71E4B1B78DBB2002BF8D0FFF7ACFE55
:102AA00001232C703370D3E719491A4804F040FD14
:102AB000194A1A4813882100834201D0013399B280
:102AC000174B11801868174B4200D25AC0B2FFF75B
:102AD00035FEFFF7F9FB0A4B18605960022333708B
:102AE000013BD4E708000020281200202007002026
:102AF0000088C3402412002034070020E404002092
:102B0000D83E002028070020004CED40543600201D
:102B1000DAF70000084A0020E2040020FFFF00006E
:102B2000040000205032002010B5FFF767FF10BDF1
:102B3000044B9A7BD20603D51022997B0A439A73E1
:102B40007047C046002C004210B5134C8AB02000DC
:102B500002F030FBD722210001A8104C02F0A6FFA2
:102B600001A802F0B3FF211C01A803F057FA0421C9
:102B700001A803F0EDF8211C01A803F08DFBFA2158
:102B800001A8490003F08DFB01A802F0E2FF01A8B3
:102B900003F029F90AB010BDE80400200000D0437A
:102BA00007B500200AF0A8FE6B460733181A0EBDC1
:102BB000F0B50121A5B00C2004F0B8FB01210D20D7
:102BC00004F0B4FB0121062004F0B0FB01210D202C
:102BD00004F0ACFB0221052004F0A8FB0121062033
:102BE00004F0D4FB0A2004F0C3FAE121A64C490208
:102BF000200005F09FF8200005F09EF8002802D183
:102C00000A3004F06FF9FFF79FFFA049200004F09D
:102C100074FC9F4804F066F99E49200004F06DFCA6
:102C2000002004F00FFB06F075FA9B49200004F029
:102C300075FC9A49200004F07BFCFFF7B1FF0A22E3
:102C40000100200004F0C5FC0921112000F06AFBFE
:102C5000132001F03BFC9249200004F05FFC01F0DE
:102C600083F901F0B3FAFFF7B7FA062000F0E4FBAE
:102C70000A2000F0D9FB01F0E5FF8A49200004F0AA
:102C80004DFC04A800F0BEFD8749200004F035FC8F
:102C900004A9200004F04CFC04A800F0D1FD8349F5
:102CA000200004F02AFC04A9200004F041FC04A840
:102CB00000F0E6FD7E49200004F01FFC04A920007E
:102CC00004F036FC04A800F057FB04A9200004F02F
:102CD0002FFC7849200004F010FC774B0A22197869
:102CE000200004F09AFC754B75491D78200004F013
:102CF00004FC29000A22200004F08FFC714B724969
:102D00001D78200004F0F9FB032D00D0B2E00A2268
:102D10000121200004F05DFC01AD01232A00002107
:102D2000212000F01FFD6949200004F0E6FB02AEFF
:102D300029780A22200004F070FC042332000021CC
:102D40001F2000F00FFD6249200004F0D6FB31780F
:102D50000A22200004F05DFC5E4D2000290004F0F2
:102D6000CCFB71780A22200004F053FC29002000DB
:102D700004F0C3FBB1780A22200004F04AFC2900C9
:102D8000200004F0BAFBF1780A22200004F041FC94
:102D9000514F03AE3900200004F0CAFB0423320077
:102DA0000021082000F0DEFC4C49200004F0A5FBC7
:102DB00031780A22200004F02CFC2900200004F0C5
:102DC0009CFB71780A22200004F023FC29002000DB
:102DD00004F093FBB1780A22200004F01AFC2900C9
:102DE000200004F08AFBF1780A22200004F011FC94
:102DF00020000024390004F09BFB394B394A0121A3
:102E00001A60394B394A0D201A60394B394A136020
:102E1000394A1360394A3A4B1A603A4B1C7004F035
:102E2000B5FAFA20800004F05DF821000D2004F0CE
:102E3000ADFAFA20400004F055F801210D2004F00D
:102E4000A5FAC82004F04EF821000D2004F09EFAE7
:102E5000FA20400004F046F801210D2004F096FA13
:102E6000FA20400004F03EF821000D2004F08EFA14
:102E700025B0F0BD002D02D10A22290049E72249E0
:102E8000200004F055FB47E7084A0020E8F700005F
:102E900088130000F3F7000006F8000021F8000096
:102EA0002FF8000046F8000062F800006EF80000FD
:102EB0007AF8000098F8000041400020150000203A
:102EC000A6F800006A400020B1F80000C8F8000031
:102ED000D5F80000C5F7000052FF0000E7F8000039
:102EE0006040002091210000704000200D21000072
:102EF000712100006C4000204C40002001210000A6
:102F000044400020E4040020C6F8000010B5254C21
:102F1000152314222449200002F01CF92100D72295
:102F2000224802F0C3FD00236420214A2149D371C5
:102F30005352243150542049204853542049214CA5
:102F4000505021492148535401395354204A138188
:102F50005360204B136000231F4A2260636001F01E
:102F6000A7FF1E4801F0A4FF1D4801F0A1FF1D4866
:102F700001F09EFF1C4801F09BFF1C4801F098FFE8
:102F80001B4801F095FF1B4801F092FF1A4801F021
:102F90008FFF1A4801F08CFF194A1A49200006F0E9
:102FA0008DF910BDE804002064490020BC02002017
:102FB000583A00203C0400006A04000000093D006B
:102FC0006C040000103F002071040000183F002036
:102FD000E03E002078F700004A78DE11283F00200C
:102FE000383F0020483F0020583F0020683F002025
:102FF000783F0020883F0020983F0020A83F002015
:103000000000002019210000F0B5040085B01E006A
:103010000AAB1B78103001930BAB1B78170002939F
:103020000CAB1B780D00039300F016F92000243040
:1030300000F012F9220000234032A363E36313700F
:1030400063729D4205D10A4B0A4A22210A4809F0BF
:10305000C3FC6B461B79200063716B461B7A2560AD
:10306000E3716B461B7B2771A671237205B0F0BD1F
:10307000F7F800006EF9000008F90000437A002B11
:1030800004D18372C372C36001334372704730B599
:10309000040085B002AD00680291039204F0B2FB17
:1030A0006B79227AE17900932068002304F054FDC3
:1030B0002979029A206804F0C9FB206804F098FB83
:1030C00005B030BD70B518260400FFF7D7FF3300F8
:1030D000082120790D4D4343EB18595604F082F92D
:1030E00033000821A0794343EB18595604F07AF9CC
:1030F000082160794643AD19695604F073F9044B11
:10310000200006CBFFF7C3FF70BDC04600FB0000E8
:10311000FC3F002010B54B1C0BD0102909D0EFF359
:10312000108472B6102905DD02238372002C00D1B1
:1031300062B610BD0123827A1A43827218224A4372
:103140000449891816228A569340C2681343C36003
:10315000ECE7C04600FB000007B5837A00910192BE
:10316000002B07D09A070AD5EFF310835A42534138
:10317000C37272B60099019AFFF789FF07BDDB079A
:10318000F8D5C368014A9BB29360F3E7001800408A
:10319000837A002B05D09A0704D5C37A002B00D080
:1031A00062B67047DB07FCD5C368024A9BB2D360A6
:1031B000F7E7C0460018004010B5006804F02BFB8C
:1031C00010BD00001FB5094A094B0A4913600023CE
:1031D0005371137102930133019316330093162236
:1031E00001330548FFF710FF05B000BDFC3F00208C
:1031F00000093D0068490020B83F0020094B1868CD
:10320000002809D1EFF310820749002A08D172B6CD
:10321000BFF35F8F01320A701A6801321A6070477B
:103220000870F9E70840002004400020084B1A68A5
:10323000002A0CD01A68013A1A601B68002B06D1CC
:10324000044B1B78002B02D0BFF35F8F62B6704730
:103250000840002004400020FF23002110B5040096
:103260000370FC3B41708170C170017143710C228D
:10327000083009F064FC200010BD000001220B00A2
:1032800010B5134008D00D4B1A70042343708368A7
:10329000002B00D0984710BD0222114204D00749EC
:1032A0000A704370C368F3E704231942F3D0034A5A
:1032B0001370033343700369EAE7C0464E48004188
:1032C00010B5FFF79BFF0C4B1B8C1B071B0F0B2B29
:1032D0000FD80A4A9900885800280AD00F240849B4
:1032E0000A78A24313430B70064B1978C9B2FFF753
:1032F000C5FFFFF79BFF10BD004800410C400020B8
:103300003F4800414E48004110B5054C0121207056
:1033100004F00CF82078012104F038F810BDC04604
:103320007840002070B5040005200E0003F0DAFD9F
:103330000221200003F0FAFF0A4D2800FFF7C2FE29
:1033400028002100FFF7E6FE0022074B07491E7008
:10335000074B20001C70074B1A70023203F062FC0E
:1033600070BDC046B83F00207A40002035430000C1
:1033700079400020414000201FB5234B1A781023CC
:10338000012A03D0023A534253419B011F4A402471
:103390001278012A10D02419052A0DD0092A23D029
:1033A0000D2A24D0022A25D0062A26D00A2A26D081
:1033B000033A544254412403154A11786E220029DD
:1033C00007D001291ED002394A425141114A4942CF
:1033D0000A40114909780291104909780094019135
:1033E0000F490AF061FA1FBD80246400E4E78024DD
:1033F000A400E1E78024E400DEE7C024FBE78024AA
:103400002401D9E7074AE4E7130000201200002056
:1034100016000020901A0000140000201100002067
:103420000AFA000052030000024B9870000AD8709C
:103430007047C04666400020024B1870000A587062
:103440007047C0466640002010B5042200210248A3
:1034500009F075FB10BDC046944000200321084AC6
:10346000084093788B4303439370064A093193785D
:103470008B4381000B439370034B18707047C04619
:10348000984000209D400020130000200F2310B51D
:103490003C240C4903408A78A2439C0022438A7052
:1034A0000B2208211040084A012806D010210928C3
:1034B00003D02021022B00D040211170034A137049
:1034C00010BDC046984000201500002012000020CA
:1034D000421E90410323404203400320034A044913
:1034E00013708A78824313438B7070476A400020C0
:1034F0007B4000201F233F21064A184093780B4051
:1035000081010B439370C10083100B43D370024BB6
:10351000187070479D400020110000200F231840B4
:103520000301124A10B503431370114B1870114B6D
:103530001B78012806D10130012B00D00A20FFF7AB
:10354000D9FF10BD032803D10330012BF6D1F6E7D4
:10355000042801D0072804D10820012BEFD0122025
:10356000EDE7012BEAD10420E9E7C0469D400020A9
:103570001400002013000020014B1878C009704788
:103580003C400020024B58784007C00F7047C046AF
:103590003C400020054A064B12785B780120002A47
:1035A00002D09B11184070475B11FBE71000002010
:1035B0003C4000200120064B9A785B789110014234
:1035C00005D1D91103D11B11034200D1104070471E
:1035D0003C400020054A937858115B101843D3787B
:1035E0009B101843012318407047C0463C40002000
:1035F0000120034BDB785A10024200D1184070477B
:103600003C40002010B5D4088C420AD2001907248F
:1036100014400122A2400178D2B2002B02D0114303
:10362000017010BD9143FBE710B503000022042197
:103630000148FFF7E7FF10BD7B400020012310B5D4
:1036400043400C2204210248FFF7DCFF10BDC046B6
:103650007B40002010B50300092204210148FFF738
:10366000D1FF10BD7B40002010B503001D220421B6
:103670000148FFF7C7FF10BD7B40002010B50300D5
:10368000072204210148FFF7BDFF10BD9440002030
:1036900070B50500064C03000D2220000421FFF741
:1036A000B1FF2B000E2204212000FFF7ABFF70BDFD
:1036B0009440002070B505000C4C0300122220003D
:1036C0000521FFF79FFF2B0020000F220521FFF7A8
:1036D00099FF2B0020000C220521FFF793FF2B0000
:1036E000102205212000FFF78DFF70BD94400020BF
:1036F00010B50300112204210148FFF783FF10BD1C
:103700009440002010B503000A2204210148FFF76D
:1037100079FF10BD9440002010B50300032204215E
:103720000148FFF76FFF10BD94400020054B10B516
:10373000187001231222434004210348FFF762FF5F
:1037400010BDC046484000207B400020002330B51B
:103750009CB2A24205D90D00DC002541C5540133BD
:10376000F6E730BDF0B585B00092019303ACFF29B8
:103770001DD101272070204B204D1B68280006CB4F
:10378000FFF7EAFC1E4B0021187803F0FFFD00262E
:10379000B3B29F421CD8009C019BE618A6421DD0E4
:1037A00000212800FFF708FD20700134F6E74023D0
:1037B00018432070CAB27F2902D862700227DAE764
:1037C00080235B421343C9116370A1700327D2E7C2
:1037D000A15D2800FFF7F0FC0136D9E75023013B3B
:1037E000FDD1074B0121187803F0D0FD2800FFF729
:1037F000CFFC05B0F0BDC0460C000020B83F002053
:103800007840002030B585B003AC050022000423C9
:10381000FF210020FFF7A6FFE078A2780002024314
:103820000F20217863780840090901900091280051
:1038300002490AF039F805B030BDC0465CFA000014
:1038400030B5050089B006AC22000823FF21012015
:10385000FFF788FF2178A379E27905916178280044
:103860000491A1780391E178029121790191617924
:10387000009102490AF018F809B030BD88FA00003A
:1038800037B5050001AC22000423FF210320FFF718
:1038900069FF62782378E17812021343A278090263
:1038A0000A432800014909F0FFFF37BDB0FA0000C4
:1038B000042310B5024AFF211800FFF753FF10BD83
:1038C0007B40002010B50523024AFF210F20FFF79F
:1038D00049FF10BD3C40002010B50423024AFF21DF
:1038E0000320FFF73FFF10BD6640002010B5042302
:1038F000024AFF210E20FFF735FF10BD9440002043
:1039000010B50423024AFF211F20FFF72BFF10BD33
:103910009D40002010B50523024AFF210820FFF733
:1039200021FF10BD9840002013B5114B1B78022BCE
:103930000FD1104A537810781B0218438005800D70
:103940000D4B1B78002B03D0022801D9023880B21E
:1039500016BD0020012BF3D101AC0333103022003F
:10396000FF21FFF7FFFE637820781B02E5E7C046E2
:1039700041400020984000201000002010B50200B7
:103980000B1E03D0FF211120FFF7ECFE10BD13B575
:10399000040005236A46FF210620FFF7E3FE69467F
:1039A000200001F0ADFA13BD13B502236A460021D1
:1039B0001220FFF7D7FE022301AC190022001220CB
:1039C000FFF7D0FE637820781B02184307F04EF80B
:1039D0006B466A465B78041C10781B02184306F09D
:1039E000FBFF011C201C06F0F3FA16BDF0B589B0F0
:1039F000022304AA07211520FFF7B4FE022305AD18
:103A00002A00190006AF1220FFF7ACFE07AE022312
:103A10003A0004211220FFF7A5FE042332001020F3
:103A2000FF21FFF79FFE04AB58781B786C780002EB
:103A300018432B7824027D781C433B782D02B27802
:103A40001D43F37812111B011A43324B03921B786A
:103A5000012B5BD0304B0293304B019307F006F8FB
:103A6000071C200007F002F8061C280006F0FEFFE5
:103A7000051C039806F0FAFF391C041C381C06F0DC
:103A80007FFC311C071C301C06F07AFC011C381C22
:103A900006F004F9291C061C281C06F071FC011C08
:103AA000301C06F0FBF8211C051C201C06F068FCED
:103AB000011C281C06F08CFA05F008FC08F0B4FD87
:103AC0000022174B07F038FF040001980D0008F0A2
:103AD000ABFD02000B002000290008F09FF908F060
:103AE000F5FD1049041C05F091FF00280BD10E498B
:103AF000201C06F0D3F8029906F042FC011C201CA1
:103B000006F0CCF8041C201C09B0F0BD074B029352
:103B1000074BA2E7130000206D56953FE17AF34270
:103B2000000024400000B0C20000B0426D561540B5
:103B30003D8AE342F7B5022301AC6A460621122012
:103B4000FFF710FE042310202200FF21FFF70AFEDA
:103B50006B465E781B7836021E43A078E37800112E
:103B60001B011843224B1B78012B3DD0214D224CC9
:103B700006F07CFF071C300006F078FF9021C90595
:103B800006F0FEFB391C061C381C06F0F9FB011C74
:103B9000301C06F01DFA05F099FB08F045FD0022E7
:103BA000164B07F0C9FE0600201C0F0008F03CFD74
:103BB00002000B003000390008F030F908F086FDF3
:103BC0000F49041C05F022FF00280BD10D49201CD1
:103BD00006F064F8291C06F0D3FB011C201C06F03B
:103BE0005DF8041C201CFEBD074D084CC0E7C04614
:103BF000130000206D56953FE17AF3420000244007
:103C00000000B0C20000B0426D5615403D8AE3424C
:103C1000F0B585B00700FFF78DFF3F4906F03EF88D
:103C20008023FC211B06C018890506F0A9FB061C91
:103C300006F0B2FE00B200284BDD431C1BB2102B75
:103C40004ADC364A1178364A1278042901D007290D
:103C500048D1012A42D1334AD45C062B00DC6442AD
:103C600024B26400155C062800DC6D422DB26D00A4
:103C700006F0B2FE011C301C06F0B4FC061C601BF2
:103C800006F0AAFE011C301C06F07AFB041C28007A
:103C900006F0A2FE011C201C06F000F8041C684679
:103CA00001F006F92049201C06F06AFB1F4906F0C6
:103CB00067FB06F071FE02B2D317684601F01DF9EA
:103CC0006946380001F0C8F9684601F015F905B0F9
:103CD000F0BD00231800B4E71123FBE7022AF6D158
:103CE000134AB9E7012A0AD1124AD45C092B00DC35
:103CF000644224B2155C09280CDC6D420AE0022AF9
:103D0000E5D10D4AD45C072B00DC644224B2155C7B
:103D10000728F2DD2DB2ABE700007442140000204A
:103D200013000020E6F90000B32355436F12833AD5
:103D3000F8F90000C2F90000D4F9000013B504003E
:103D400005236A4600211520FFF70CFD6946200077
:103D500001F0D6F82000FFF75BFF13BDF0B585B08A
:103D60000092019303ACFF291FD1802301275B42FE
:103D7000184320701F4B204D1B68280006CBFFF70F
:103D8000EBF91E4B0021187803F000FB0026B3B2BC
:103D90009F421CD8009C019BE618A6421DD02178AA
:103DA0002800FFF709FA0134F7E740235B42184384
:103DB0002070CAB27F2902D862700227DAE7802316
:103DC0005B421343C9116370A1700327D2E7A15D61
:103DD0002800FFF7F1F90136D9E75023013BFDD167
:103DE000064B0121187803F0D1FA2800FFF7D0F92B
:103DF00005B0F0BD0C000020B83F00207840002046
:103E000037B5002101AC05000423220036200191C2
:103E1000FFF7A8FC002D0ED10F4B104A25701A6039
:103E2000012263789343637002232200002136202D
:103E3000FFF794FF37BD012D08D1074B084A1A60E0
:103E40000322237893431D432570EDE7022DEBD128
:103E5000014B024AF3E7C0460C00002080400020DE
:103E600088400020042310B5024AFF211800FFF704
:103E700075FF10BD7B400020054B10B51870002861
:103E800004D00120FFF7F0FBFFF7ECFF10BDC046A8
:103E90006440002010B50423024AFF210320FFF7ED
:103EA0005DFF10BD6640002010B50423024AFF21CB
:103EB0000E20FFF753FF10BD9440002037B5051EBC
:103EC000124C0AD1FFF714FCFFF7EEFF1022E37843
:103ED0009343E370FFF7C6FF37BD0120FFF708FCEF
:103EE000FFF7E2FFFA2000238000684301AA80B2B6
:103EF0001070001250705380FF2104330C20FFF724
:103F00002DFF1023E2781343E3E7C0467B400020F7
:103F100010B50423024AFF211F20FFF71FFF10BD29
:103F20009D40002010B50523024AFF210820FFF71D
:103F300015FF10BD9840002070B50425084C2A00DC
:103F40000021200008F0FBFD402300222370054BD8
:103F5000FF211A700D202B002200FFF7FFFE70BD1D
:103F6000904000204140002010B5FFF7E5FFFFF72B
:103F7000B3FCFFF79DFCFFF7C3FCFFF7CBFCFFF79B
:103F8000B5FC10BD37B501AC22000423002136205A
:103F9000FFF7E8FB012300252370220003330021F3
:103FA0003620FFF7DBFE2900220004233620E570CF
:103FB000FFF7D4FE0A2002F095FFF0232900E370FA
:103FC0002200EC3B36202570FFF7C8FEFFF7B4FF58
:103FD00037BD000010B50D4C2078FF2802D1FFF747
:103FE000D1FF10BD012103F0A1F92078002103F0D9
:103FF000CDF9022002F076FF2078022103F096F935
:104000000A2002F06FFFFFF797FFEAE77A400020EF
:1040100070B50125094B0A4C1B7820006B4000222B
:104020000421FFF7EFFA637822001D436570042333
:10403000FF210D20FFF792FE70BDC046100000204A
:104040009040002070B50125FFF76CFF114B124C1A
:104050001B7800226B4004212000FFF7D3FA0223D3
:104060002278FF2113432370220004230D20FFF741
:1040700075FE0A4B0A4E1B78002B08D00422002143
:10408000200008F05CFD3570FFF7C2FF70BD337093
:10409000FCE7C04610000020904000206440002053
:1040A0004140002030B5224B87B01B7804000D0042
:1040B000022B2FD11F4A023311780B43137002A831
:1040C00000F0F6FE02A8FFF762FC290002A800F04B
:1040D000A1FF694602A800F052FF6A460023137050
:1040E0005378012293436A46FF2153700A20052327
:1040F000FFF734FE694602A800F002FF0E4902A84D
:1041000000F088FF02A9200000F0E8FE02A800F0FD
:10411000F3FE09E0012B05D1064A013351780B4328
:104120005370CCE700F0C4FE200007B030BDC0469D
:1041300041400020904000205040002073B50324EF
:104140007C21184A04405378174E8B4361010B437E
:1041500053706A461549B0788B7840250732002C99
:1041600008D12843B070302083432E3803438B702E
:10417000402307E0A843B070022C0CD132208343C7
:104180008B7008231370002101232120FFF7E6FD27
:10419000074B1C7073BD012CE5D1322003438B709B
:1041A0001023EFE7984000207B4000209D40002036
:1041B0001600002010B504000078FFF7BFFF6078FC
:1041C000FFF74CF9A078FFF761F910BD70B5184BF7
:1041D0001D78002D2BD101242800FFF779F9280044
:1041E000FFF7A4FA134B28001C70FFF71DFA2000FC
:1041F000FFF744FA2000FFF74BFA2000FFF75AFAC6
:104200002800FFF77FFA2000FFF786FA2000FFF76B
:104210002BFA0948FFF7CEFF0520FFF77FF9074B80
:1042200004201B78A34200D00A20FFF763F970BD79
:10423000414000201000002059FA00001300002027
:104240000F4B10B51B7802000C00002B01D002347C
:10425000A4B20C4B9C4212D87F2C03D90A4B1B787A
:10426000002B0CD02300FF210920FFF777FD1F2131
:10427000064A537814708B4324121C43547010BDAB
:1042800010000020FF0300006A400020984000203A
:1042900010B5064C0522FF21200008F050FC052334
:1042A0002200FF210F20FFF759FD10BD3C400020E8
:1042B000042310B5044A0F2051780B435370FF219B
:1042C0000523FFF74BFD10BD3C4000200C2310B52B
:1042D000064A5B4250789178034353700523194393
:1042E00091700F20FF21FFF739FD10BD3C400020E9
:1042F00010B5FFF721FE04220021044808F01FFC3E
:10430000FFF7E4FF0122024B1A7010BD904000201D
:1043100041400020102310B5054A5B4211780F2060
:104320000B431370FF210523FFF718FD10BDC04696
:104330003C40002010B5FFF7C5FAFFF759F90028F7
:1043400004D0214B1B68002B00D09847FFF714F9CD
:10435000002806D01D4B1B68002B02D09847FFF7A2
:10436000D9FFFFF70FF9002806D0194B1B68002B67
:1043700002D09847FFF79CFFFFF71CF9002803D0F5
:10438000144B1B68002B10D1FFF724F9002808D12B
:10439000FFF700F9002813D00F4B1B68002B04D146
:1043A0000EE00E4B1B68002BF2D09847FFF78EFFF4
:1043B0000B4B1B78002B03D0FFF79AFFFFF728FE6B
:1043C000FFF766FF10BDC0464C400020444000206F
:1043D000744000206C4000206040002070400020AD
:1043E0006440002010B5FFF7A7FD04220021044817
:1043F00008F0A5FBFFF78EFF0222024B1A7010BDDA
:10440000904000204140002007B513006A46073263
:1044100013700123FFF7A2FC07BD13B50C0001AA1E
:104420001070000A0223507004212D20FFF796FC23
:10443000032206212D20FFF7E7FF012206212D2070
:10444000FFF7E2FF042322000A212D20FFF78AF95B
:10445000002206212D20FFF7D7FF13BD7FB50025D1
:1044600003AC02A90420FFF7D8FF01AE2900220007
:104470000423362035800395FFF774F932000223B8
:1044800006212D20FFF76EF90E4B290023800E4BDD
:104490002200338036200223FFF760FC3200022323
:1044A00006212D20FFF75AFC052002F01BFD0223F8
:1044B000627829001A406270362022002570FFF7CA
:1044C0004DFC7FBD010300000080FFFF13B5FEF728
:1044D0001BFF0020FFF794FC052002F003FD214B99
:1044E0001878FF2802D0022102F020FFFFF772FDAA
:1044F0000422FA211C48FFF729F9FFF7CBFC04221C
:1045000000211A4808F01BFB0020FFF797F8012054
:10451000FFF7A0F8FFF7A6FCFEF796FFFFF7C4FC35
:104520000120FFF76DFC052002F0DCFCFFF796FF91
:10453000052002F0D7FC0020FFF762FC01AC05204B
:1045400002F0D0FC21000820FFF767FF2278084B1B
:10455000210009201A70FFF760FF2278054B1A70BE
:1045600013BDC0467A400020664000207B400020FA
:10457000A2400020A140002070B5C94D94B02A7817
:10458000012A00D026E1C749013206A8FFF7DEF86C
:104590000422C5490EA8FFF7D9F80222352107A841
:1045A000FFF7D4F8C14C2278002A00D017E1162179
:1045B000023208A8FFF7CAF82A78012A00D018E1C9
:1045C0008721013209A8FFF7C1F8FB21B84E2278F4
:1045D0003378981F084202D0032B00D00EE1002A46
:1045E00004D1642102320AA8FFF7B0F8B14B1B785E
:1045F000082B00D016E12B78012B00D00CE104220F
:10460000AD490FA8FFF7A2F8337802221021012B41
:1046100000D028210BA8FFF799F8A84E0122337883
:10462000042B02D0D821072B00D1BC2102A8FFF710
:104630008DF83278012A00D01FE1A149033211A878
:10464000FFF784F89D4EC9213278012A04D0022A4E
:1046500000D067E1C221013A03A8FFF777F8367866
:10466000012E00D073E10422964912A8FFF76EF8DC
:1046700032001E2104A8FFF769F801220D2101A8CC
:10468000FFF764F82A78012A00D084E18E490132CC
:104690000CA8FFF75BF88D4B1B785A1E012A00D936
:1046A00080E123780222002B00D079E188490DA80F
:1046B000FFF74CF8814B1A78531E012B00D9F6E115
:1046C0002B78012B00D0E6E1824B04221B78002BD3
:1046D00000D1DEE1804910A8FFF738F813AC2100C3
:1046E0001E20FFF79AFE2178002900D049E201221E
:1046F000703105A8FFF72AF806AA02230421232017
:10470000FFF72CFB0EAA04230C212320FFF726FB26
:1047100007AA022312212320FFF720FB022308AA65
:1047200019002720FFF71AFB09AA022304212720DA
:10473000FFF714FB0AAA022306212720FFF70EFB2E
:104740000FAA042308212720FFF708FB0BAA022346
:1047500026212720FFF702FB01AA01235F492E2013
:10476000FFF7FCFA0CAA02235D492E20FFF7F6FAA8
:104770000DAA02235B492E20FFF7F0FA10AA0423AA
:10478000FF211E20FFF7EAFA02AA01230B212820AD
:10479000FFF7E4FA11AA04230C212820FFF7DEFA20
:1047A00003AA01230B212A20FFF7D8FA04AA012328
:1047B0000B212B20FFF7D2FA12AA042307212B206A
:1047C000FFF7CCFA012305AA0E212B20FFF7C6FA2A
:1047D00014B070BD022A00D0DAE64349D5E6012ABA
:1047E00002D101320621E4E6022A00D0E4E60121EA
:1047F000DFE6022A00D0E8E68D21E3E6012B06D0B1
:10480000013A012A00D9F1E602222021EBE6022A30
:1048100000D0EBE61021E6E6022B00D0F4E60422FD
:104820003249EEE6102B0BD12B78012B02D104225A
:104830002F49E6E6022B00D0E6E604222D49E0E609
:10484000202B0BD12B78012B02D104222A49D8E648
:10485000022B00D0D8E604222849D2E6402B00D013
:10486000D2E62B78012B02D104222549C9E6022B7E
:1048700000D0C9E604222349C3E6022A02D102324B
:104880002149DCE6032A02D101322049D7E6042A75
:1048900001D11F49D3E6052A3ED1013A1D49CEE692
:1048A000130000207088000007A9022516000020D0
:1048B00012000020150000202D001A3114000020E5
:1048C000405C0000070400090716000011000020EA
:1048D000330B0000484000207555351506080000D0
:1048E00006180000042800009B8800006B003B3184
:1048F00052001A33BE003B339A001A355E013B3535
:104900001D011A3796023B37A05C0400C06C0800FA
:10491000805C0400E03F1E00072A00D092E6033AC4
:104920009B498CE6032A02D1023AC52194E6042A67
:1049300002D1033A95218FE6052A02D1043AC0211B
:104940008AE6072A00D08AE6063A932184E6022204
:10495000B31E9343DBB2002B07D192188D4912A8E6
:10496000FEF7F4FE0122262184E6032E07D104225D
:10497000894912A8FEF7EAFE012256217AE69643FB
:10498000052E00D079E60422844912A8FEF7DEFE47
:104990000122BE216EE6022A00D07CE6804977E63D
:1049A000804984E6032B01D0082B07D1237802220B
:1049B000002B01D17C497AE67C4978E6042B07D1AB
:1049C00023780222002B01D1794970E679496EE6FD
:1049D000052B07D123780222002B01D1764966E608
:1049E000764964E6062B07D123780222002B01D1F9
:1049F00073495CE673495AE6072B08D123780222F3
:104A00008021002B01D1490151E609024FE6092B13
:104A100007D123780222002B01D16B4947E66B496D
:104A200045E60A2B01D0112B07D123780222002B57
:104A300001D167493BE6674939E60B2B07D123785B
:104A40000222002B01D1644931E664492FE60C2B88
:104A500007D123780222002B01D1614927E6614961
:104A600025E61A00123A012A08D823780222002BE0
:104A700002D1D721C9001AE65B4918E6142B00D0F1
:104A800018E623780222002B01D158490FE6584935
:104A90000DE658491FE6022B00D01FE6564B0422B4
:104AA0001B78002B01D0554915E6554913E6032A1A
:104AB00018D12B78012B09D14F4B1B78002B02D03A
:104AC0000132504907E604224F4904E6022B00D088
:104AD00004E6494B04221B78002B01D04B49FAE530
:104AE0004B49F8E5042A15D12B78012B07D1424B0D
:104AF0001B78002B01D04749EDE54749EBE5022B38
:104B000000D0EBE53C4B1B78002B01D04349E2E59C
:104B10004349E0E5052A18D12B78012B09D1364B02
:104B20001B78002B02D0013A3E49D4E504223E49CD
:104B3000D1E5022B00D0D1E52F4B04221B78002BAE
:104B400001D03A49C7E53A49C5E5072A00D0C5E58D
:104B50002B78012B09D1284B1B78002B02D0033A6C
:104B60003449B8E504223449B5E5022B00D0B5E557
:104B7000214B04221B78002B01D03049ABE5304992
:104B8000A9E51F231940413319430122B1E5C0466D
:104B9000E07D1E0008054008091040081D040008BB
:104BA00007060000985900003D0A0000EA51000085
:104BB000510800008E420000A30800001E450000BE
:104BC000C2050000142E00001E050000F42800009D
:104BD00066060000323300005C070000E03A000087
:104BE000AE070000703D0000C2350000F50800006F
:104BF000AE47000075757575484000206747270768
:104C0000676767676F4F2F0F6F6F6F6F8B6B4B2BE4
:104C10008B8B8B8B5F3F1F1F5F5F5F5F9A7A5A3A68
:104C20009A9A9A9A4828080E484848488565452522
:104C3000858585859272523292929292D1B171514C
:104C4000D1D1D1D137B5FFF725F9FFF70BF9FFF730
:104C50005FF9FFF767F9FFF727F9FFF78DFC114CB4
:104C6000200000F089F908430BD10F4D2B78002B61
:104C700007D180220023D201200000F03EF9012359
:104C80002B706946200000F07AF96A460223FF2162
:104C90001820FFF763F802236A4604492E20FFF725
:104CA0005DF837BD5040002065400020041800002A
:104CB00010B50A4C200000F0FBF8094A0949200011
:104CC00004F0FCFA084A094B0949136000235371A8
:104CD0001371084A11605371137110BD50400020C8
:104CE00000000020F94E000080400020808D5B0015
:104CF00080841E008840002010B50400503000F071
:104D0000FBF82000403000F0F7F82000303000F0D1
:104D1000F3F82000203000F0EFF82000103000F011
:104D2000EBF8200000F0E8F8200010BD70B58025F9
:104D300004006D002900002004F0FDF92300683311
:104D400018702900002004F0F6F96934207070BD55
:104D500010B5040000F0ACF82000103000F0A8F806
:104D60002000203000F0A4F82000303000F0A0F83F
:104D70002000403000F09CF82000503000F098F8FF
:104D80002000FFF7D3FF200010BD00230370704701
:104D90007047000010B50648FFF7AEFF0548FFF763
:104DA000ABFF0548FFF7A8FF0448FFF7A5FF10BDBC
:104DB00028420020A841002028410020A8400020CF
:104DC00070B50E48FFF7C4FF0D48FFF7C1FF0D484F
:104DD000FFF7BEFF0C48FFF7BBFF0C4D0C492A0044
:104DE000002004F06BFA0B4C2000FFF7CEFF2A00E6
:104DF0000949200004F062FA70BDC046A8400020B6
:104E000028410020A8410020284200200000002066
:104E1000954D0000A3400020914D0000F0B584683E
:104E2000C568230089B00F002B4306D1302138001C
:104E300002F067FB012009B0F0BD002301939D4201
:104E40000ADA2D21380002F05CFB2B00220000253D
:104E500054429D410123019300260A220023200091
:104E6000290004F0F1FD0A235B424343721C1C1924
:104E700002AB9C550D000400D6B20143EDD1019B5D
:104E8000F41802AB013EE4B2F6185D1EB5420CD038
:104E9000337819003731C9B2092B01D83033D9B270
:104EA000380002F02EFB013EF0E72000C3E70000CF
:104EB000034B00220833036000238260C360704705
:104EC000D0FA000030B51D001400034B8460C560AB
:104ED0000833036030BDC046D0FA0000054B002205
:104EE0000833036000238260C3608A68CB688260F5
:104EF000C3607047D0FA000070478260C36070479B
:104F00000022002370B505000E0000248260C360FB
:104F1000305DE200002104F013FDAB68013418435A
:104F2000EB68A8601943E960052CF1D170BD000061
:104F300070B5151C0400080005F04EFD291C05F095
:104F40001FFA044905F01CFA04F0EAFDA060E160D4
:104F500070BDC0469A997947D0B500260027040055
:104F6000044B8660C76008330360FFF7E1FF200051
:104F7000D0BDC046D0FA0000C1688068704770B5E7
:104F80000D00060005220021280007F0D8FD0024AE
:104F9000B068F168E20004F0C5FC28550134052C26
:104FA000F6D170BD70B50E49C46885680C40261EE8
:104FB0000EDA01204042C1172D184E41094A28003F
:104FC000324311000023012212184B4115001E002C
:104FD0003100280004F0DAFD034905F0D1F970BD75
:104FE000FF00008000FFFFFF3548833730B582683F
:104FF000C368002B06DA802500246D0012196B416E
:105000008260C36030BD884203D08A68CB6882600A
:10501000C360704730B58A68CB688468C568121968
:105020006B418260C36030BD30B5150087B00400AD
:1050300002A8FFF753FF04980599AA68EB681218B5
:105040004B410090019102A9200004920593FFF7C3
:1050500045FF200007B030BD30B58A68CB68846852
:10506000C568A41A9D412B0022008260C36030BD38
:1050700030B5150087B0040002A8FFF72FFF049A8F
:10508000059B0092019300980199AA68EB68801A29
:10509000994102000B00200002A904920593FFF73A
:1050A0001DFF200007B030BD30B5150085B00400ED
:1050B0006846FFF713FF029A039BA868E96804F0AB
:1050C000E7FC0290039169462000FFF707FF2000EC
:1050D00005B030BD30B5150085B004006846FFF757
:1050E000FDFE02980399AA68EB6804F0ADFC0290FB
:1050F000039169462000FFF7F1FE200005B030BDA6
:10510000F8B505000E0017000024BC4208D02B683B
:10511000315D1B6828009847002801D00134F4E76E
:105120002000F8BD70470300FC33196ADA69914228
:1051300003D01B6AC018007E704701204042FBE785
:105140000300FC33D8691B6AC01A01D50130FF3057
:1051500070470000F7B50193FA238026002504006C
:105160009B008360124B760008330F0045602900D6
:10517000009203603200183007F0E1FC23002000A9
:10518000FC332130DD6132001D622900FF3007F061
:10519000D6FC87239B00E3185D609D606B461B78FF
:1051A000276123756B461B79A57520006375FEBDCD
:1051B000DCFA000070B5060018250C49006902F001
:1051C000F5FC306902F062FB2B000821307D084CB1
:1051D0004343E318595602F005F90821707D454311
:1051E0006419615602F0FEF870BDC046A086010049
:1051F00000FB00008A2300229B00C1540C3BC31813
:105200005A609A60012383757047020010B5FC3222
:10521000536894680133DBB29C4202D05468015554
:10522000536010BDF7B5002405001700019320005E
:10523000A24227D02B00FC33DC611C6201222869CA
:1052400002F062FBA0421CD02E001836286902F042
:10525000CAFB013401003000FFF7D7FF2869A742DD
:1052600006D002F031FB0221286902F037FBEDE79E
:1052700002F021FB019B002B03D00321286902F0DF
:105280002DFBE0B2FEBD10B50123FFF7CBFF10BD33
:10529000002210B5837D93420DD087239B00C41854
:1052A0006368A4680133DBB2A34204D02130FF302D
:1052B000FFF7ABFF0122100010BD0300FC3399681B
:1052C0005A68914206D09A68805C9A680132D2B2DC
:1052D0009A60704701204042FBE700228A2370B5A4
:1052E0009B00827505000E00C15C006902F00CFB9A
:1052F000002806D10321286902F0F0FA02242000D8
:1053000070BD872328009B00EA18536894682130F9
:10531000FF301C1B01D50134FF34002C0ED02C694A
:10532000FFF7CBFFC1B2200002F01BFB0028E8D141
:105330000321286902F0D2FA0324E0E7002EDED030
:105340000321286902F0CAFAD9E710B51830FFF72F
:10535000B4FF10BD70B50400006902F022FB002804
:1053600014D0206902F02BFB002810D0206902F035
:10537000ABFA0321206902F0B1FA8C239B00E558B7
:10538000002D39D10023FC34E361236270BD206914
:1053900002F01FFB002809D0206902F015FB00284D
:1053A00004D0206902F01AFB0028DFD0206902F047
:1053B00010FB002826D1206902F0FCFA0028E5D075
:1053C000206902F00BFB002837D087239B00E218EE
:1053D000536892689B1A01D50133FF33FF21002BDC
:1053E00005D020002130FF30FFF767FFC1B22069F0
:1053F00002F0C9FAA075C9E7236820001B69984725
:10540000A847BFE7206902F05FFA2069032102F094
:1054100065FA206902F0E2FA0028B7D0872300225B
:105420009B00E3185A609A600123A3758B239B00AD
:10543000E3589342AAD09847A8E72200FC32D369E8
:10544000126A0133DBB22069934206D102F033FACB
:105450000321206902F042FA98E702F0C4FA010041
:1054600020001830FFF7D1FE206902F02DFAEFE797
:1054700010B50248FFF76EFF10BDC046A8420020DD
:1054800010B51523142202490248FFF763FE10BD30
:1054900064490020A842002010B544688068A047F5
:1054A00010BD10B504688068A04710BD73B501AC8D
:1054B0000E000123220010210500FFF7EDFF002858
:1054C0000DD103210C230E402178B60099433143BE
:1054D00021700B3B220010212800FFF7E2FF76BD70
:1054E00037B501AD01232A000C001021FFF7D4FFCE
:1054F0002B781B079B0FDAB2022A03D004D8012AAB
:1055000000D0002323703EBD0323FBE773B501AC3D
:105510000E000123220011210500FFF7BDFF002826
:105520000DD107210E230E40217876009943314397
:1055300021700D3B220011212800FFF7B2FF76BD3C
:1055400037B501AD01230C002A001121FFF7A4FF9C
:10555000030028780007400F0138052804D804F01C
:1055600061F80709030B030D0022180022703EBDED
:105570000122FAE70222F8E70422F6E70622F4E71E
:1055800037B501AD01230C002A001121FFF784FF7C
:105590000300287800090A281DD804F043F81C06E7
:1055A0000A0C0E10121416181A000122180022708C
:1055B0003EBD0222FAE70322F8E70422F6E70522BD
:1055C000F4E70622F2E70722F0E70822EEE70922D5
:1055D000ECE70A22EAE70022E8E773B501AC0E0027
:1055E0000123220012210500FFF756FF00280CD1ED
:1055F0000123402221781E409143B601314321709E
:10560000220012212800FFF74CFF76BD10B50A00DA
:1056100006232221FFF740FF10BD10B50A00062324
:105620002821FFF739FF10BD012373B501AC0E002F
:10563000220019000500FFF72FFF00280BD13F23A0
:105640002178B601194031433E3B217022001900F8
:105650002800FFF726FF76BD73B501AC0E000123CD
:10566000220012210500FFF717FF00280CD10123AB
:10567000042221781E409143B6003143217022005C
:1056800012212800FFF70DFF76BDF7B501AE0C0023
:105690000123320018210500FFF7FEFE002827D164
:1056A00001270221E209BA40337828008B431343D3
:1056B000337032003B001631FFF7F3FE002817D19C
:1056C0003B006A4662212800FFF7E6FE00280FD162
:1056D00003231C409C406B4618221B786221934395
:1056E0001C436B466A461C7028003B00FFF7D9FE3E
:1056F000FEBD73B501AC0E00012322000A21050096
:10570000FFF7CAFE00280BD1072321781E409943DA
:1057100031432170063B22000A212800FFF7C1FE19
:1057200076BD70B50D0002210400FFF77DFF002853
:105730000BD102232A0046212000FFF7ADFE0028EE
:1057400003D101002000FFF76FFF70BD73B50C009F
:1057500002210500FFF768FF002816D101AE0123E2
:1057600032005F212800FFF797FE00280DD1337823
:10577000DB069B0FDAB2022A09D007D8012A06D02D
:10578000207000212800FFF74FFF76BD0323237010
:10579000F7E773B501AE0C0031000500FFF7C1FF5C
:1057A000002851D132789307D107194353070B438F
:1057B00011070B43D10619439306194353060B43B4
:1057C000D209DB0F13437278D107C90F0B4391073E
:1057D000C90F0B435107C90F0B431107C90F0B43E7
:1057E000D106C90F0B439106C90F0B435106C90FD0
:1057F0000B43D2091343012B10D16B46DE1C310041
:105800002800FFF7A3FF00281ED13078032805D811
:1058100003F008FF021B2126002C26D001236A4634
:1058200010212800FFF738FE00280DD16B460F220B
:105830001B78240113401C436B466A461C701021E0
:1058400001232800FFF72DFE76BD231C022C00D279
:105850000223DCB2E2E7231C032CFAD20323F8E78D
:10586000231C042CF5D20423F3E70124D6E773B5F7
:1058700001AE0C0031000500FFF753FF002851D1A5
:1058800032789307D107194353070B4311070B4392
:10589000D10619439306194353060B43D209DB0F74
:1058A00013437278D107C90F0B439107C90F0B43FC
:1058B0005107C90F0B431107C90F0B43D106C90F7D
:1058C0000B439106C90F0B435106C90F0B43D20975
:1058D0001343012B10D16B46DE1C31002800FFF76B
:1058E00035FF00281ED13078032805D803F09AFE32
:1058F000021B2126002C26D001236A4611212800F4
:10590000FFF7CAFD00280DD16B460F221B7824013A
:1059100013401C436B466A461C701121012328006A
:10592000FFF7BFFD76BD231C022C00D20223DCB2A0
:10593000E2E7231C032CFAD20323F8E7231C042CF0
:10594000F5D20423F3E70124D6E70000F0B545685B
:1059500085B00400009101921E00002D2ED0016937
:10596000294B994200D91900002702AB5F7103232C
:1059700002AA1371039A2800FDF7EEFB3900E068D4
:1059800001F004FD8021009B60680B431900FDF7C6
:1059900013FC019DAE19AE4206D000216068FDF7F0
:1059A0000BFC28700135F6E70121E06801F0EEFC00
:1059B0006068FDF7EDFB002005B0F0BD0368012035
:1059C000002BF9D0217AC1401800FFF713FC2068A2
:1059D000009903681B68984729002068FFF77DFC41
:1059E000217AF2B249082068FFF74DFC019D20683A
:1059F00003681B6998470028DED0206803685B694C
:105A0000984728700135F2E7808D5B00F0B50500FE
:105A1000406885B0019114001E00002829D0296932
:105A2000214B994200D91900002702AB5F71032373
:105A300002AA1371039AFDF78FFB3900E86801F0A1
:105A4000A5FC01996868FDF7B7FBA619B44205D01B
:105A500021786868FDF7B0FB0134F7E7E8680121B9
:105A600001F094FC6868FDF793FB0023180005B073
:105A7000F0BD286801230028F8D0297AA619D9405A
:105A8000FFF7B8FB2868019903681B6898472868E6
:105A9000A64205D0036821781B6898470134F6E7D1
:105AA0000121FFF71AFCE0E7808D5B000023027202
:105AB000044A01608261044A4360C2610062C38299
:105AC0007047C0460D5A00004D590000436870B53C
:105AD0000500002B07D00121C06801F027FC01213F
:105AE000E86801F053FC2C00183480212000FFF7F7
:105AF000CCFD002802D00120404270BD01212000D1
:105B0000FFF7AAFD0028F6D101212000FFF765FD6F
:105B1000011EF0D12000FFF7ECFD011EEBD10426A1
:105B200020002E75FFF735FE011EE4D12000FFF79F
:105B3000BDFC011EDFD16E752000FFF798FE002826
:105B4000D9D106212000FFF7E1FC0028D3D1E8825B
:105B5000D3E770B5837D04000025012B07D0017DBC
:105B60001830FFF716FEA84203D10123A3752800C1
:105B700070BD01256D42FAE737B56B46DD1D0C009F
:105B800018302900FFF7ACFC002810D12878032832
:105B90000DD803F047FD020A0608064B00202360DB
:105BA0003EBD054BFAE7054BF8E7054BF6E701204C
:105BB0004042F5E723DB793D23DBF93D23DB793EEA
:105BC00023DBF93E70B50D1C04002749281C03F0A7
:105BD0001DFF0B2100283ED12449281C03F016FF8D
:105BE0000121002837D12249281C03F00FFF022190
:105BF000002830D11F49281C03F008FF032100288A
:105C000029D11D49281C03F001FF0421002822D1BD
:105C10001A49281C03F0FAFE052100281BD1184957
:105C2000281C03F0F3FE0621002814D11549281C76
:105C300003F0ECFE072100280DD11349281C03F0C6
:105C4000E5FE0821002806D11049281C03F0DEFEDD
:105C500041424141093120001830FFF79AFD431EAF
:105C60009841404270BDC046CDCCCC3F0000484179
:105C70000000D041000050420000D04200005043DC
:105C80000080D043004050440060D0440050504554
:105C900070B50D1C04002449281C03F0B7FE0B232B
:105CA00000283ED12149281C03F0B0FE0123002822
:105CB00037D11F49281C03F0A9FE0223002830D148
:105CC0001C49281C03F0A2FE0323002829D11A49ED
:105CD000281C03F09BFE0423002822D11749281C0E
:105CE00003F094FE052300281BD11549281C03F05E
:105CF0008DFE0623002814D11249281C03F086FECD
:105D0000072300280DD11049281C03F07FFE08232B
:105D1000002806D10D49281C03F078FE4342434178
:105D200009330020237570BDCDCCCC3F0000484125
:105D30000000D041000050420000D042000050431B
:105D40000080D043004050440060D0440050504593
:105D500010B50023022906DD0233042903DD0133D7
:105D6000082900DD023B19001830FFF79FFB431E96
:105D70009841404210BD0023F0B585B002AD04004B
:105D80000E00183029000193FFF747FC002803D0CC
:105D90000120404205B0F0BD200001A9FFF7ECFE54
:105DA000041EF5D1019F0023E85E04F015FE391CA6
:105DB00004F0E6FA04F0F0FD30600223E85E04F03F
:105DC0000BFE391C04F0DCFA04F0E6FD70600423DD
:105DD000E85E04F001FE391C04F0D2FA04F0DCFDA8
:105DE000B0602000D6E770B5C37D04000025012B0C
:105DF00007D0417D1830FFF73AFDA84203D10123B7
:105E0000E375280070BD01256D42FAE770B50024E6
:105E1000C37D0500A3420AD00600010018361531E3
:105E20003000FFF7ADFBA04203D001246442200004
:105E300070BD21003000FFF71AFD0028F5D1EC7588
:105E4000F5E70000F7B5130004000D1C012A55D03A
:105E5000002A0BD0022A00D195E0A37D291C200046
:105E6000012B00D0D3E0FFF7ADFE18E00600183696
:105E7000142101236A463000FFF70EFB011E0CD1EE
:105E80006B461B787F2B0BD801AF01233A001521FD
:105E90003000FFF701FB002819D001204042FEBD71
:105EA000A37D012B0DD06B467F221B78142113405C
:105EB0006A46300013700123FFF7F3FA0028E3D09D
:105EC000EBE73000FFF765FC0028ECD0E5E7102297
:105ED0003B78134207D14F49281C03F08DFD002861
:105EE000BBD04C4DB9E793433B703A0001231521D9
:105EF0003000FFF7D6FA0028EDD0CEE706001836BE
:105F000014216A463000FFF7C7FA011EC5D16B465F
:105F10001B787F2B15D801AF01233A0015213000E3
:105F2000FFF7BAFA0028B8D110233A781A421FD0E6
:105F30003949281C03F074FD002800D18DE7364D47
:105F40008BE7A37D012B0DD06B467F221B7814219C
:105F500013406A46300013700123FFF7A2FA0028AD
:105F6000D9D09AE73000FFF714FC0028ECD094E772
:105F700013433B703A00012315213000FFF791FADB
:105F80000028D5D089E7060001AF183601233A0072
:105F900015213000FFF780FA002800D07DE710229D
:105FA0003B78134222D1E37D012B05D12000FFF77E
:105FB0002DFF002800D070E7142101236A4630002D
:105FC000FFF76AFA011E00D067E76B461B787F2B4C
:105FD000AED8A37D012B14D06B461A7880235B4288
:105FE00013436A46142113700123C6E793433B70A1
:105FF0003A00012315213000FFF753FA0028D2D0D0
:106000004BE73000FFF7C5FB0028E5D045E7FFF779
:106010003FFE44E7000048410000504310B5002215
:10602000FFF710FF10BD000037B56B46DD1D0C00FB
:1060300018302900FFF784FA002814D128780628A0
:1060400011D803F0EFFA08040A100C100E00074BE9
:10605000002023603EBD064BFAE7064BF8E7064BEF
:10606000F6E7064BF4E701204042F3E700008C40DE
:1060700000000C4100008C4100000C4200008C42EA
:1060800070B50D1C04002349281C03F0BFFC01213E
:10609000002837D12049281C03F0B8FC0221002831
:1060A00030D11E49281C03F0B1FC0321002829D15E
:1060B0001B49281C03F0AAFC0421002822D11949FD
:1060C000281C03F0A3FC052100281BD11649281C1D
:1060D00003F09CFC0621002814D11449281C03F06D
:1060E00095FC072100280DD11149281C03F08EFCD6
:1060F0000821002806D10F49281C03F087FC4142E3
:106100004141093120001830FFF7B1FB431E98418F
:10611000404270BD000048410000D04100005042A4
:106120000000D042000050430080D0430040504463
:106130000060D0440050504570B50D1C040021494A
:10614000281C03F063FC0123002837D11E49281CBA
:1061500003F05CFC0223002830D11C49281C03F00A
:1061600055FC0323002829D11949281C03F04EFCB3
:106170000423002822D11749281C03F047FC0523DB
:1061800000281BD11449281C03F040FC06230028DA
:1061900014D11249281C03F039FC072300280DD123
:1061A0000F49281C03F032FC0823002806D10D49B2
:1061B000281C03F02BFC4342434109330020637544
:1061C00070BDC046000048410000D0410000504270
:1061D0000000D042000050430080D04300405044B3
:1061E0000060D04400505045F0B5040085B00D1C4F
:1061F000171E09D0012A25D0E37D291C2000012B80
:1062000044D1FFF73DFF0CE0070003AE1837012330
:10621000320016213800FFF73FF9002803D0012093
:10622000404205B0F0BD33787F2BE5D97F22134083
:1062300033703200012316213800FFF732F90028AD
:10624000DAD0ECE703001833019303AE13001621F4
:1062500032000198FFF720F90028E0D132787F2A38
:1062600007D90C49281C03F0DBFB0028C4D0094DDA
:10627000C2E780235B421343337032003B00162198
:106280000198FFF70EF90028EBD0C8E7FFF754FF9D
:10629000C7E7C0460000504310B50022FFF7A4FF37
:1062A00010BD10B501237D290CDD0023FA2909DD7D
:1062B000FA2202335200914204DD921802339142D5
:1062C00000DD023319001830FFF720F9431E984112
:1062D000404210BDF0B585B002AD04000E0018308C
:1062E0002900FFF793F9002803D00120404205B0B0
:1062F000F0BD200001A9FFF797FE041EF5D1019F14
:106300000023E85E04F068FB391C04F039F804F05F
:1063100043FB30600223E85E04F05EFB391C04F0AE
:106320002FF804F039FB70600423E85E04F054FB9E
:10633000391C04F025F804F02FFBB0602000D6E7EC
:1063400010B50400243000F085F9002804D08C2317
:106350009B00E01800F07EF910BD042310B5827890
:1063600001691343020083701032806800F02EFA36
:1063700010BD10B5040080680A002430A16900F047
:106380008FF9021E04D00F20A38803405B01D018B0
:1063900010BDF8B5027804000E000769002A33D05A
:1063A000436901209C468B4204D0002903D121611E
:1063B00001206661F8BD13071FD5E3698B4223D323
:1063C0006346A068013B8179751E0931CB40CD4001
:1063D000AB4202D8614600291BD1530617D5036A88
:1063E0002361002DE4D0220021691032A06800F062
:1063F00081F9013D0028F4DC06E09306E0D5A368AE
:106400001B895B018B42D3D227610020D2E7236A2C
:10641000E6E7ED1AE5E7000070B503780500002B0C
:1064200001D1012070BD83785B0736D50121FFF7CC
:10643000A0FF041E05D101236A78002013436B706E
:10644000F0E70378E52BF6D02B781B0707D5EB692F
:106450001A0A037742771A0C1B0E8277C3772B6ACE
:106460009BB2A3761B0AE3762B6A1B0C23751B0ACF
:1064700063750D4B1B68002B0BD0210020001631DB
:1064800018309847637E227E1B021343A3741B0AB5
:10649000E3740422AB789343AB70A868FFF750FF16
:1064A0000028C8D0BDE7C046DC4400200823F7B56B
:1064B00001920278040000911A420AD08278910772
:1064C00007D51A420CD16369019ADB431600934247
:1064D0000CD2012301206278404213436370A8E08C
:1064E000C169FFF756FF0028EDD1F2E76569002E7C
:1064F00000D18DE0A0686B0A4779ED051F40ED0DD6
:10650000002F11D12169002D00D099E0002942D03F
:106510002200103200F0EEF80028DADB04D120006F
:10652000FFF71BFF0028D4D02169A06800F0DCF839
:106530003918002D02D1444B9E4239D880239B004C
:106540005B1B37009E4200D91F000122002D04D1A1
:106550006369E069834200D30432A068243000F00C
:106560009FF80028B5D040193A00009906F0CBFA00
:106570008023ED199B009D4205D1A068243000F0D6
:1065800069F80028A5D06369F61BDB196361009BDD
:10659000DB190093AAE7236A002B07D12000FFF73D
:1065A000DCFE002895D023692362BDE72361BBE7A9
:1065B000A268264BD06A9E4218D91379750ADB1B54
:1065C000DBB2AB4200D92B005F02814208D3C01876
:1065D000884205D90025501DC57701204042D06270
:1065E000A568009A286800F0A7FACAE7814204D19A
:1065F000531DDD7701235B42D362A368009A1868BC
:1066000000F024FA002800D163E78027BF00BAE732
:10661000E369A278AB4204D2E56104231343A3707B
:1066200003E00B4B1B68002BF7D1A3787F2B01D81D
:106630000198FEBD2000FFF7EFFE0028F8D148E7E3
:1066400000F052F8010079E7FF010000FF030000AD
:10665000DC44002070B50125037804002B420AD0E9
:10666000060043680C3681683200186800F0EEF9C5
:10667000051E02D10025280070BD23789B0704D495
:106680000122237893432370F5E76368A2681969B0
:1066900018685118320000F0D9F90028F0D1E9E764
:1066A00070B5836804000E0015008B420AD0FFF716
:1066B000D1FF002801D1002070BD6B070AD500234F
:1066C000A6602370032320001D4023780C301D4357
:1066D0002570F1E7220063680C323100186800F081
:1066E0006AF90028EBD1E6E78379023999404069DD
:1066F00008187047F8B505000C001600012902D8EB
:1067000001204042F8BDC3698B42F9D3C379202BE5
:1067100017D18369C909C9188C239B000222C018AC
:10672000FFF7BEFF0028EBD07F231C40A4002358B6
:106730001B011B09EA6900209342E3D83360013052
:10674000E0E7102BDCD1FF278369090A3940C9181B
:106750008C239B000222C018FFF7A2FF0028CFD095
:106760003C406400235AE5E770B50C001500012990
:1067700001D8002070BDC3698B42FAD3C379202BA6
:1067800010D18369C909C9188C239B00C018032242
:10679000FFF786FF0028ECD07F231C40A400255083
:1067A0000120E7E7102BE4D1FF268369090A314075
:1067B000C9188C239B00C0180322FFF771FF002823
:1067C000D7D0344064002552EAE70000F0B5C46831
:1067D00085B005000E00019201278C4201D20C0009
:1067E0000027EB690134A34204D2002F19D1EC68D1
:1067F0000137F6E7A64214D003AA21002800FFF7CC
:1068000079FF00280DDBECD0039B002BE9D1002F92
:1068100000D0EC600B4A21002800FFF7A5FF071EFF
:1068200003D10027380005B0F0BD002E02D1019B36
:106830001C60F7E7220031002800FFF795FF0028D1
:10684000F5D1EEE7FFFFFF0F10B5FF210148FCF780
:10685000B3FC10BDB83F002010B501000148FCF7A3
:10686000ABFC10BDB83F002070B5057A0400002DC8
:106870000BD14368054806CBFCF76EFC6368290022
:10688000187A00F083FD0123237270BDB83F002009
:1068900010B5037A0400002B0CD043680121187A4C
:1068A00000F074FDFF20FFF7D7FF0348FCF770FCF2
:1068B0000023237210BDC046B83F0020F8B5050084
:1068C0000C00160000F0D8FA0700FFF7BDFF687251
:1068D000FF280FD100F0D0FABBB280B2C01AFA2361
:1068E0009B009842F1DD552328002B70FFF7D0FF65
:1068F0000020F8BDA619FE2801D05023F4E7A642D7
:1069000006D0FF210648FCF757FC20700134F6E75B
:1069100000236B72FFF798FFFFF796FF0120E8E76F
:10692000B83F002070B50C0000F0A6FA0500FFF794
:106930008BFFFF2808D000F09FFAABB280B2C01ADC
:10694000A042F4DD002070BD0120FCE770B5037AA1
:1069500005000E001400002B01D1FFF785FF002E6B
:1069600004D0962128004900FFF7DCFF4020304387
:10697000FFF772FF200EFFF76FFF2002000EFFF7F8
:106980006BFF2004000EFFF767FFE0B2FFF764FF24
:106990009520002E00D00E38FFF75EFF0B24FFF786
:1069A00053FFFFF751FF6872030603D5013CE4B2C1
:1069B000002CF6D170BD70B5837A04001500032B4E
:1069C00000D049020A0020001121FFF7BFFF002874
:1069D00006D0302323702000FFF75AFF00250AE07D
:1069E0008022290092002000FFF768FF051EF2D0E8
:1069F0002000FFF74DFF280070BD000070B50500B6
:106A000008001400FFF728FF80239B00E618217878
:106A10000D480134FCF7D0FBB442F8D1FF20FFF75A
:106A20001BFFFF20FFF718FFFFF70EFF1F23687201
:106A300003400120052B05D0572328002B70FFF7BA
:106A400027FF002070BDC046B83F002070B5837A94
:106A500004001500032B00D049020A002000182171
:106A6000FFF774FF3223061E16D12A00FE212000F4
:106A7000FFF7C4FF002810D0FA212000C900FFF75B
:106A800051FF5A23051E07D032000D212000FFF7C9
:106A90005DFF002806D0292323702000FFF7F8FEB1
:106AA000002506E0FFF7D0FE0028F4D12000FFF714
:106AB000EFFE280070BD70B50D00FA21C90004007A
:106AC000FFF730FF002806D15B2323702000FFF77B
:106AD000DFFE002006E02A00FC212000FFF78EFFE9
:106AE0000028F3D070BD10B5837A04000A00032B90
:106AF00000D04A0219212000FFF728FF01230028B7
:106B000005D0323323702000FFF7C2FE00231800A7
:106B100010BDFA2170B5C9000400FFF703FF051E80
:106B200007D0FD20FFF798FE2000FFF7B1FE2800F8
:106B300070BD56232370F7E7F8B5040016001F0058
:106B4000FFF7D1FF00280ED0002569027118200040
:106B5000BD4205D0FFF7AFFF002804D00135F4E7B0
:106B6000FFF7D7FFF8BD2000FFF792FE0020F9E7FE
:106B700010B5024802F0E7F910BDC046E04400201D
:106B800010B5024802F0DFF910BDC0461C470020D6
:106B9000F7B501240326154F1549380000F092FD82
:106BA0001449154800F08EFD1449154800F08AFD7F
:106BB0001449154800F086FD1449154800F082FD7F
:106BC000144D1549280000F07DFD39000096230082
:106BD00001940022114802F04BF90096290001941B
:106BE0001E231F220E4802F043F9F7BD584900202A
:106BF00000080042000C00425C49002000100042E6
:106C0000604900200014004264490020001800423E
:106C1000684900206C490020001C0042E04400202C
:106C20001C470020F7B500921822162542434F4B0F
:106C300007009B185D5701916B1C4ED04C4B4D4C7F
:106C40001E68002E27D1310044224B4805F077FF03
:106C500031004422494805F072FF1022484B49494F
:106C60001E60CA67C021C120474B49005A508000AE
:106C70001958FF36B14319501A60444B444A5A80A0
:106C800002232278134323706378DB09012BFBD0A6
:106C90000122374B1A6001231E00AE406269324365
:106CA0006261019A002A18D0102D1FD1E278134397
:106CB000E370009B042B0BD818000723A2789A439B
:106CC00002F0B0FC030C0E10120005231343A37056
:106CD0002A4B019A1A64B6B2E660F7BD0423F5E7C1
:106CE0000323F3E70223F1E70123EFE7380000274E
:106CF000002100F077FB224B1F499C461B68BA001D
:106D0000BB421DD16046013303608E501B4B01997D
:106D10009950072D19DD0123083DAD000721A94039
:106D2000144A9B009B189A698A439A61009A042A24
:106D3000D1D81000996902F075FC0B1012141600DE
:106D40008858B042E1D00137D9E7AD000023E5E72C
:106D50000522AA400A439A61BDE70422F9E703220B
:106D6000F7E70222F5E70122F3E7C04600FB000047
:106D7000F849002000180040B44900207049002064
:106D8000FC49002004E100E000E100E0000C0040CC
:106D900005400000F8B50024094B1B68A34200D849
:106DA000F8BD084E084FA5003369EA591A4204D0CD
:106DB000064BEB589847EB5933610134ECE7C0467A
:106DC000FC49002000180040B44900207049002010
:106DD000054B10B51B6C002B00D098470123034ACC
:106DE000D1780B43D37010BD7049002000180040CB
:106DF000FEE70000034B10B51B68002B00D098473E
:106E000010BDC046004A002070B50F490F4CA1428A
:106E100004D100F08DF802F099F9FEE70C4D002343
:106E20008D42F6D0CA18E818A24205D3094B824217
:106E3000EFD00949002204E0006804331060F1E754
:106E400004C38B42FCD3E4E700000020A002002032
:106E5000A0050100A0020020FC4F002010B500F0AA
:106E600064F8002801D100F055F810BD014B1860FE
:106E70007047C046004A0020014B18687047C04662
:106E8000044A0020F7B51348012284461249134CE6
:106E90008E68636805689B0E13400192886862687B
:106EA000019F920E3A4067463F6893420ED1BD4221
:106EB0000CD186420AD35B19FA254868AD00861BBF
:106EC00007486B437043000DC018FEBD3D00130022
:106ED0000600E3E7044A002010E000E000ED00E0D7
:106EE0005555000070B5041E10D0FFF7CBFF05000C
:106EF00000F01AF8FFF7C6FF054B401B9842F7D980
:106F0000FA23013C9B00ED18002CF3D170BDC04664
:106F1000E703000010B5034A13680133136000F063
:106F200095FB10BD044A0020704700207047000008
:106F30001E2270B546484749436893431C3A1343A1
:106F4000436008238C6923438B61434C434B9C82F1
:106F50009C8A14439C82DC681442FCD00124404A81
:106F600014701578254203D055786DB2002DF8DBEA
:106F700001249460547864B2002CFBDB394C5460DB
:106F8000547864B2002CFBDB8224E40154805478F2
:106F900064B2002CFBDB02249C840E34DD682542A5
:106FA000FCD0314CDC621024DD682542FCD09D8C85
:106FB0002E4C2C439C841024DD682542FCD00224F6
:106FC0009D8C80262C439C844024DD683542FCD077
:106FD000DD682542F9D01024DD682542FCD000246C
:106FE0009460547864B2002CFBDB214C54605478DC
:106FF00064B2002CFBDB1C6A1E4D2C4080251C62F9
:107000001C6AAC431C62032393601B4B5360537890
:107010005BB2002BFBDB0023FF240B72174A4B7281
:107020008B72CB72164B1A60164B174A1B6811688D
:107030009A065B01C90E2340520F12020B43134301
:10704000124A1385802342681343436070BDC046D3
:1070500000400041000400400C0600000008004011
:10706000000C004001050100B905FF7D040A000085
:1070700000070300FFFCFFFF03060100006CDC02B9
:107080001800002024608000206080000040004242
:10709000FA212D4B10B51868890002F0CDFA2B4B60
:1070A000013898424FD82A492A4A4860C020136ABA
:1070B00000061B021B0A0343136200238B60073385
:1070C0000B608021136A09061B021B0A0B43136223
:1070D000FC22214B196A0A431A62FF22196A120222
:1070E0000A431A62A022196AD2020A431A621B4B8F
:1070F0001C005A7852B2002AFBDB194A5A80194BFD
:107100001A00597EC9090129FBD0C821890099803C
:107110000521D970537EDB09012BFBD0C023002051
:107120005B011361907000F049F863785BB2002B4B
:10713000FBDB0D4B0D4A6380D379DB09012BFBD0C0
:107140004123537010BDFEE718000020FFFFFF0031
:1071500010E000E000ED00E000040040000C004002
:107160001E40000000400042214000000048004254
:107170000F4B302218600F490F4B0A2809DD988801
:1071800090439880243A0A605A7ED209012AFBD0A3
:107190007047082806DD98889043202202439A8091
:1071A0000A22F0E7988802439A800822EBE7C0465B
:1071B000200000201C000020004000421F4900B5B4
:1071C0000B004A7ED209012AFBD001380A282FD8A9
:1071D00002F028FA1B2E2E2E2E2E062E2E24110003
:1071E0001A6917490A400F211A615A788A43110017
:1071F00001220A4310E01A6911490A400F211A615D
:107200005A788A4311000322F3E71A690C490A40AD
:107210000F211A615A788A435A7000BD1A690849C9
:107220000A400F211A615A788A4311000222E0E7CE
:10723000F022196912050A43F3E7C04600400042F4
:10724000FFFFFFF010B5040006285ED007285ED0CF
:10725000052800D80E340121200000F0C3F80E2CC0
:107260000DD12D4B1900DA79D209012AFBD0022069
:107270001A7882431A70CB79DB09012BFBD027499E
:107280000B004A7ED209012AFBD018226243244C0B
:10729000A418207C1F240A692040A24302430A61EB
:1072A0005A7ED209012AFBD0022219780A431A70A9
:1072B0005A7ED209012AFBD00222197B0A431A7393
:1072C00001221A765A7ED209012AFBD00222197BAA
:1072D0000A431A731A7ED207FCD5588B80B25A7EA5
:1072E000D209012AFBD002211A788A431A705A7EE9
:1072F000D209012AFBD00B4B1A680B4B1B689A4230
:1073000002D006D9D31AD84010BD2C24A3E72D24CF
:10731000A1E79B1A9840F7E700480042004000426E
:1073200000FB00001C00002020000020182310B5E6
:1073300008244343134AD0180457013412D00124BF
:107340009A5643689C4003290CD808000E49D20184
:107350005218D318403302F065F90210060B0221CF
:107360001970546010BD0621197054609461F9E7DA
:107370000621197054605461F4E702211970946079
:10738000F0E7C04600FB0000004400411823F0B5C0
:1073900008245843114A13181C5701341BD00126E6
:1073A00035005F688356BD400D4ADB019A1890682E
:1073B00005420BD10C00601E8441D2194032107876
:1073C00034400336A400B04320431070044A9B1895
:1073D000002901D15D61F0BD9D61FCE700FB00006B
:1073E000004400411822424370B52D4E0300B218EC
:1073F000127A52B2140001320ED0481C00240C281C
:107400000AD802F00FF9071F1F1F1F1F1F1F1F0B96
:107410000B0B0B0001246442200070BD092905D12B
:1074200000211800FFF782FF0024F5E70A2901D1A7
:107430000839F6E700240B29EED10A391800FFF7C6
:1074400075FFE9E7182201205343F218F3565568F7
:10745000144ADB016C089B18C9B228401C1900288B
:107460000ED00F203034227809010240114341220E
:10747000C9B25B192170403319780A431A70D3E7F7
:1074800022000F26303214785B19B4432143117067
:1074900041224033197804000A431A70BCE7C04601
:1074A00000FB000000440041F7B506000D000C0091
:1074B0008B180193019B671B9C4207D0336821788E
:1074C0001B683000984701340028F3D13800FEBD16
:1074D00070B5040008000D0006F006FA23680200EB
:1074E00029005B682000984770BD10B50B1E02D0C4
:1074F000FFF7EEFF0300180010BD10B5FFF7F5FF12
:1075000010BD10B503681B68984710BD10B502493F
:10751000FFF7DEFF10BDC04650FF000070B504004D
:10752000FFF7E3FF05002000FFF7F0FF401970BDF3
:1075300070B50400FFF7D9FF05002000FFF7E6FF54
:10754000401970BDF0B58BB06B46150000220533B5
:107550000600DA770800012D00D80A2509AC2900B9
:1075600002F0F0F8CAB2130037330700DBB2092982
:1075700002D813003033DBB2013C2370002FEED170
:1075800021003000FFF7B1FF0BB0F0BDF8B50600E9
:107590000C00151E04D10368C9B21B689847F8BDDA
:1075A0000A2A0CD100290BDA2D21FFF7AAFF61422C
:1075B00007002A003000FFF7C5FF3818EFE7D2B206
:1075C00021003000FFF7BEFFE9E710B5FFF7DEFF4F
:1075D00010BD70B50400FFF7D9FF05002000FFF7CC
:1075E00095FF401970BD70B50500FFF7CFFF04008F
:1075F0002800FFF78BFF201870BD10B5002A04D1BA
:107600000368C9B21B68984710BDD2B2FFF79AFF52
:10761000FAE710B5FFF7F1FF10BD70B50400FFF7F2
:10762000ECFF05002000FFF771FF401970BD00005E
:10763000014B18607047C046240000200122024B15
:1076400052421A607047C04624000020164A10B506
:107650001368591C26D0013B1360002B22D172B64F
:10766000124B134A0433934213D9124A01211000DA
:10767000147D0C42FCD02021148BFF319B085B0051
:1076800021431183D3610C4B13800123027D1A42E5
:10769000FCD0BFF34F8F094B094ADA60BFF34F8F1D
:1076A000C046FDE710BDC0462400002000200000B9
:1076B000030200000040004102A5FFFF00ED00E0D2
:1076C0000400FA05016070479446F0B59E1E721ED4
:1076D00096416246056892072F6836063A43324360
:1076E0002A60072505AC24780068A40129402143BD
:1076F00042680024022B00D05C0311432143416007
:10770000F0BD30B5C0250368AD031C6812052A40E2
:107710002243C0240904A4022140114319600368D4
:107720005A6814435C6030BD0123026811680B4342
:10773000136003681A68D207FCD4DA69D207F9D457
:1077400070470223026811680B4313600268D36913
:107750009B07FCD4704703681A7ED20702D41A7EB6
:107760009207FCD57047002203685A83704703686C
:10777000187E4007C00F70470368187EC009704725
:10778000802302685B42117E0B43137670470368C7
:10779000588B8007C00F704702230268518B0B4340
:1077A000538370470368187EC007C00F7047036893
:1077B000188DC0B2704703681A7ED207FCD589B213
:1077C000012019857047012203689A7570470122CC
:1077D00003681A7570470123026811680B43136030
:1077E00003681A68D207FCD4DA69D207F9D4704763
:1077F0000223026811680B4313600268D3699B0778
:10780000FCD470470368DA699207FCD402211A6835
:107810008A431A6070470268936A5B0A5B021943E5
:10782000916203681A7E5207FCD5986AC0B270470D
:1078300010B54900044801F0FFFE80B2002801D0D5
:10784000013880B2C0B210BD006CDC0270B54B08CC
:107850000C00012105680B400C402E6824075B07D3
:10786000234333432B6011000468FFF7E1FF2073CB
:1078700070BD0123026811680B43136003681A6826
:10788000D207FCD4DA69D207F9D470470223026820
:1078900011680B4313600368DA699207FCD4302146
:1078A0005A8B8A43110010220A435A830268D36913
:1078B0005B07FCD4704780230268DB0211685168C3
:1078C0000B43536070470000036803491A685A6805
:1078D0000A405A607047C046FFFFFBFF032230B5E5
:1078E000036811401C68074D5A6809042A40E406E1
:1078F0001143640F5960052C03D10268D3695B07FB
:10790000FCD430BDFFFFFCFF490010B511430468F3
:10791000CBB2618B8906890F012904D0618B89065E
:10792000890F0229F5D1616AC90AC9021943616246
:107930000368002A08D11A7ED207FCD5588B40076D
:10794000C30F012058400BE0187E8007C00FF5D10F
:107950001A7ED207F8D5C022596892020A435A60AB
:1079600010BD0368283319700368187EC007C00F64
:1079700003D15A8BD207F8D57047588B4007C30FF5
:1079800001205840F8E70368283319700368002085
:107990001A7E520704D5588B01234007C00F584068
:1079A000704703681868C006400F043843425841C6
:1079B000C0B270470368187E4007C00F7047036865
:1079C000187EC007C00F70470368588BC006C00FF1
:1079D00070470368187E8007C00F70470368588B94
:1079E0000007C00F704703681A68D206520F052AB5
:1079F00002D11A7E9207FCD528331878C0B270479E
:107A00000368104A934213D00F4A934212D00F4A90
:107A1000934211D00E4A934210D00E4A93420FD097
:107A200001200D4A4042934201D1063040B27047D6
:107A30000020FBE70120F9E70220F7E70320F5E744
:107A40000420F3E700080042000C0042001000424E
:107A50000014004200180042001C0042F8B5FFF775
:107A6000CFFF00282EDBC3001C481F22C0180523AF
:107A70000579C35601201A4090400326C0221849B8
:107A800052001E40F6008850813AB240C024D243D2
:107A9000B440002B17DA0F263340083B114E9B08E9
:107AA0009B009B19DE6932401443DC613F231D407B
:107AB0008023DB011D430C4B08605D805A7852B275
:107AC000002AFBDBF8BD064E9B089B009B19C026D5
:107AD000B6009F593A4014439C51E7E754FF000019
